:020000040800F2
:1000000040070020C500000839210008571D0008DE
:1000100000000000000000000000000000000000E0
:100020000000000000000000000000008321000824
:100030000000000000000000812100088521000868
:10004000D700000800000000D7000008D700000813
:10005000D7000008D7000008D7000008D700000824
:1000600000000000BD020008CD020008D700000813
:10007000D7000008D7000008D700000800000000E3
:10008000D70000080000000000000000D7000008B2
:100090000000000065220008D7000008D700000813
:1000A00000000000D7000008000000007D280008C4
:1000B0000348854600F03CF80048004751290008F5
:1000C000400700200448804704480047FEE7FEE759
:1000D000FEE7FEE7FEE7FEE709220008B1000008A0
:1000E00030B50B46014600202022012409E00D46D0
:1000F000D5409D4205D31D469540491B2546954058
:1001000040191546521E002DF1DC30BD10B5202AD5
:1001100004DB0846203AD040002110BD0B46D340F6
:10012000D0402024A21A91400843194610BD000077
:10013000064C0125064E05E02046E36807C82B4320
:1001400098471034B442F7D3FFF7B6FF0C2B0008E2
:100150002C2B0008F8B50020114B05461E4604461E
:1001600001463C364A009F5A491C3818B75AC9B252
:100170007D190B4F7837BA5A14191E29F2D31E2154
:10018000FFF7AEFF074E1E2130822846FFF7A8FF7B
:1001900070821E212046FFF7A3FFB082F8BD000049
:1001A0000C0200200000002010B50146406A426C9D
:1001B00050231A420AD1416C012252021143416478
:1001C0000168CA681205920F05D020E0C06B026B6F
:1001D0000846904710BD026A002A18D10A68120723
:1001E00015D58A6853070122002B09DB4B680C24C4
:1001F000A3434B60416C130299431143416406E0F1
:10020000416C202319434164816C1143816400F0E7
:100210008DF910BD10B5406A416C40221143416414
:10022000816C04221143816400F0A3F910BD10B564
:10023000406A00F09DF910BDF8B50446002000901A
:10024000206881688907890F012905D10168C907DC
:100250002CD1C168090429D48168154A102611409F
:100260000125002915D1816829438160124811496F
:100270000068FFF735FF00E0401E00900028FBD12A
:1002800000F0F2FC07460CE000F0EEFCC01B022878
:1002900007D9606C30436064A06C2843A0640120DF
:1002A000F8BD20680068C043C007EDD10020F8BD4C
:1002B0001700008040420F003800002010B50248AF
:1002C00000F0C0FA10BD00003C01002010B502484B
:1002D00000F0B8FA10BD0000AC00002010B50446D4
:1002E0000068054940181421FFF7FAFE80002064D9
:1002F0000248E06310BD0000F8FFFDBF00000240AF
:1003000030B5056C0124AC40C56B6C60046863605B
:100310004368102B036803D099600068C26030BD49
:100320009A600068C16030BDFEE700000649002009
:10033000C861064801690422114301610169402234
:10034000114301617047000020030020002002409B
:10035000064A0021D16106490A6902231A430A614B
:10036000486108694022104308617047200300205B
:100370000020024010B5054B0022DA61044A1369DF
:10038000012423431361018010BD000020030020DD
:100390000020024010B50B4A0020D168CB060A4964
:1003A00004D5C86902231843C8611020D3685B07CD
:1003B00005D5CB6901242343CB6104210843D060D8
:1003C00010BD0000002002402003002070B505464B
:1003D00000F04AFC0646104C0AE0681C08D0002DCC
:1003E00004D000F041FC801BA84201D9032070BD5D
:1003F000E068C007F1D1E068800601D52020E06008
:10040000E068C00602D4E068400703D5FFF7C2FFEA
:10041000012070BD002070BD00200240F8B500250D
:100420000446403400952278012A39D001222270F6
:1004300003689E68760767D4384F4E68BE424DD039
:100440009E6A0F78BA4016439E620123826B1B0797
:100450009A421FD0012A1DD0022A1BD0032A19D08C
:10046000042A17D0052A15D0062A13D0072A11D03E
:1004700002688B6856697607760FB3420AD05369D3
:10048000DB08DB005361006842690B7A5B075B0F96
:100490001A4342610A68102A04D0112A02D038E0B7
:1004A0000220F8BD1E488368102A07D00122920559
:1004B000134383600868102803D02AE00122D20584
:1004C000F6E7194817490068FFF70AFE0A21484372
:1004D00000E0401E00900028FBD11AE0986A0E78D8
:1004E000B240904398620968102901D0112910D1B7
:1004F0000B488268102904D0012189058A43826053
:1005000007E00121C905F9E7416C2022114341644C
:100510000125002020702846F8BD000001100000D1
:100520000027014040420F003800002030B50E493E
:1005300008880D4604050D48240D027848355300FF
:10054000EC528C883C352405240DEC5209892C464C
:100550000905090D783CE152521CD1B201701D29E8
:1005600001D90021017030BD0002002000000020F0
:1005700070477047F8B500250446002803D0606C2A
:10058000002802D008E00120F8BD0020A06440212E
:100590000855204600F0A8F8606C1022C00600281C
:1005A00070DB2068816849076CD4616C1301994342
:1005B00002231943616481688907890F012905D1E4
:1005C0000168C9070FD1C16809040CD4C168182398
:1005D0009943A3681943C160206801696368890071
:1005E0008908194301612068C1683D4B1940C16009
:1005F000A069E1698003C9030843216A4B031843DA
:10060000636B012B02D001231B0300E0002318437E
:10061000E36818432369022B09D000231843236B96
:10062000666A5B0018430123012E02D00AE004230E
:10063000F4E7002927D0616C202631436164A16C66
:100640001943A164A16A0E46FF3EC23E02D0E66A8B
:10065000314308432168CE680643CE600126A16B72
:100660003607B14213D0012911D002290FD0032936
:100670000DD004290BD0052909D0062907D0072958
:1006800005D010E028E0012109040843DAE72168D9
:100690004E69F608F6004E6121684E69278F7F0784
:1006A0007F0F3E434E612168C9680E4E3140814242
:1006B00007D10020A064606C80088000401C60644A
:1006C00008E0606C0221884310436064A06C18430A
:1006D000A06401252846F8BD606C10436064F8E70B
:1006E0001902FEFFE7FF3F83F0B506460068174991
:1006F00087B0884227D116488169471539438161FF
:1007000080690025384005900D200090032001905D
:10071000092069460295C00600F0F8F90D480E4C14
:1007200021C4A760802025606060256100016561AB
:10073000E0600948083C00F0D3F8002801D0FFF73A
:10074000F3FDF463666207B0F0BD000000240140D1
:1007500000100240080002403C010020F7B50446AA
:1007600000680025806840073DD426464036307832
:1007700001280AD001273770E069012807D02046F8
:10078000FFF75AFD050002D02EE00220FEBD606C8E
:1007900016490840FF210131084360640020A0642D
:1007A0003070E16B12488862E16B1248C862E16BFD
:1007B0001148086321681C200860206841681022E5
:1007C000114341602068C1683943C1602168E06B12
:1007D0004031029B019A00F0AFF820688168042242
:1007E0001143816000E002252846FEBDFEF1FFFFB7
:1007F000A90100082F0200081502000870B50024A6
:10080000014620314A78022A03D004218163012461
:1008100016E0026813680E25AB4313600268136884
:100820005B085B0013600122056C1346AB40C56B8F
:100830006B604A7000220A70416B002900D0884723
:10084000204670BDF0B4C16B0D6801680C680422CD
:10085000066C1346B3402B420DD063070BD50B68D3
:100860009B0602D40B6893430B60016C8A40C16BFA
:100870004A60C16A19E00227B74002462F400123AF
:100880002032002F15D0A70713D50C68A40604D476
:100890000C680A25AC430C605370036C022199402C
:1008A000C36B596000211170816A002916D0F0BC19
:1008B00008470827B7402F4210D024070ED50C68F0
:1008C0000E25AC430C60046C1946A140C46B6160FA
:1008D0008363537000211170016BE6E7F0BC704731
:1008E00070B5040024D00220214620310D46487006
:1008F000226811680F48A3680140606826691843A0
:10090000E3683343184363691843A3691843E369F1
:100910001843084310602046FFF7E0FC0020A06267
:10092000E06220636063A06301216970287070BD7C
:10093000012070BD0FC0FFFFF8B504468C46203083
:1009400001780025012909D0012606704178002789
:10095000012905D0077002252846F8BD0220F8BD00
:1009600002214170A76320680168490849000160BD
:1009700061462046FFF7C4FCE06A00282068016851
:1009800002D00E22114306E00A22114301602068C2
:1009900001680422914301602068016831430160CD
:1009A000DAE731B500F060F9044600F05DF900992E
:1009B000001B8842F9D338BDF8B5054623480F46D9
:1009C000017E012601290BD0012101762868204CE7
:1009D000012807D02046FFF7F9FC002813D030E0AB
:1009E0000220F8BD2046FFF7F1FC002829D1FFF7CF
:1009F0009DFC2046FFF7EAFC0646164801690422E2
:100A0000914301611DE00020C04338606C6812E032
:100A10002046FFF79DFC0E48FFF7D8FC06460D4820
:100A2000026902218A430261002E01D03C6008E085
:100A3000012080022418A868810268680818A04272
:100A4000E6D80248002101763046F8BD2003002098
:100A500050C3000000200240034801698022114376
:100A6000016100207047000000200240F0B51FB473
:100A700007461A480024017E15461E46012907D064
:100A8000012101761648FFF7A1FC002803D020E0E1
:100A9000022005B0F0BD012F02D0022F00D00427A4
:100AA000220128463146FFF731FB81B201986200EE
:100AB0001018FFF75FFC0A48FFF788FC09490A692C
:100AC000520852000A61002803D1641CE4B2BC42FF
:100AD000E6D3024900220A76DBE70000200300206B
:100AE00050C300000020024005480169090605D5F1
:100AF000044941600449416000207047012070476B
:100B00000020024023016745AB89EFCDF8B50023F3
:100B10008DE001249C40A44622407DD04C68022CEC
:100B200001D0122C0CD1DC08A40027183C6A5D0708
:100B3000ED0E0F26AE40B4430E69AE4026433E6232
:100B400005685E000324B4400F79A543BF07BF0FBB
:100B5000B7402F4307604D68012D05D0022D03D00B
:100B6000112D01D0122D0ED18568CF68A543B74055
:100B70002F43876047686546AF430D79ED06ED0F5B
:100B80009D403D434560C568A5438C68B4402C43F7
:100B9000C4604C68E40049D5284CA569012635435A
:100BA000A561A4699D0834400094254CAD002F191F
:100BB000BC689D072E0F0F25B540AC430925ED06F7
:100BC000A84201D100250FE01E4DA84201D1012508
:100BD0000AE01D4DA84201D1022505E01B4DA842A7
:100BE00001D1032500E00525B5402543BD60184C23
:100BF00025684E689543F60300D515432560656862
:100C00004E689543B60300D515436560A5684E68E8
:100C10009543F60202D500E008E01543A560E568BB
:100C20004E689543B60200D51543E5605B1C0A6823
:100C30001446DC4000D06CE7F8BD00000010024014
:100C4000000001400004004800080048000C004873
:100C50000004014042694A4042617047002A01D0C5
:100C600081617047816270470148006870470000E9
:100C70003400002070B504000FD0216813480860CC
:100C800021681348086003CC41602068083C216853
:100C90008860FFF7E9FF054608E0012070BDFFF717
:100CA000E3FF401B272801D9032070BD2068C068DE
:100CB0000028F4D120680269E1688A4201D001610C
:100CC00001E004490160002070BD0000CCCC0000B0
:100CD00055550000AAAA00000068024901600020E2
:100CE00070470000AAAA000002480168491C016080
:100CF000704700003400002010B50648016810223B
:100D000011430160002000F007F800F017F8002000
:100D100010BD00000020024010B5044600F042F96A
:100D20007D21C900FFF7DCF900F078FB00222146A5
:100D3000501E00F029F8002010BD000008B50C4836
:100D40008169012211438161806910400022009075
:100D50001146501F00F018F800221146901E00F0B6
:100D600013F800221146501E00F00EF808BD0000D6
:100D700000100240C106C90E0120884001490860E8
:100D80007047000000E100E010B501F0D7F910BD98
:100D9000F8B505460068354CC00352D5E069002619
:100DA000C00007D4E16920040143E161E169014029
:100DB000012600912E480168C90510D401688215EA
:100DC00011430160FFF750FF074604E0FFF74CFFB7
:100DD000C01B642824D826480068C005F6D5206AC0
:100DE00003273F02384020D06968394081421CD037
:100DF000206A226AB843012109040A432262226A56
:100E00008A4322622062C0070FD0FFF72DFF0090B7
:100E100008E0FFF729FF0099411A1648814201D9DD
:100E20000320F8BD206A8007F3D5206A6968B843BB
:100E300008432062002E04D0E169012000078143AD
:100E4000E1612878C00705D0206BA9688008800080
:100E5000084320632878800605D5206B102188433D
:100E6000E968084320630020F8BD0000001002403C
:100E70000070004088130000F8B5054644480E464F
:100E80000068C007C00FB0420AD241480168490853
:100E90004900314301600068C007C00FB0425CD117
:100EA00028783C4C800705D56068F0218843A96804
:100EB000084360602878C0073FD06868012813D0D5
:100EC0002168022813D08907002946DA6168890859
:100ED000890001436160FFF7C7FE69680746012981
:100EE0000DD0022917D024E021688903ECE789019D
:100EF000EAE7FFF7B9FEC11B2748814217D86068AF
:100F00000007800F0128F4D117E0FFF7ADFEC11BE9
:100F1000214881420BD860680007800F0228F4D175
:100F20000BE0FFF7A1FEC11B1B48814201D9032042
:100F3000F8BD60680007800FF3D115480168C90744
:100F4000C90FB1420BD9016849084900314301601A
:100F50000068C007C00FB04201D00120F8BD28785A
:100F6000400706D56068072109028843E9680843FD
:100F7000606000F02DF86168084A0906090F515CAD
:100F8000C840074908600020FFF7C6FE0020F8BDF2
:100F9000002002400010024088130000F42A0008DC
:100FA0003800002001480068704700003800002029
:100FB0000448054900684968044A4905490F515CDD
:100FC000C84070473800002000100240042B000881
:100FD00010B512A30FCB88B06C460FC413A30FCB70
:100FE0000FC416494A680C20134603401448042BCA
:100FF0000FD0082B0DD193021B0F6C46E45CC96A1D
:1010000004AB0907090F595CD20304D5FFF768F850
:10101000604308B010BD0B486043FAE702030405C3
:10102000060708090A0B0C0D0E0F1010010203042D
:1010300005060708090A0B0C0D0E0F1000100240E0
:1010400000127A0000093D00FEB504460078D04D3C
:10105000C00747D068680007800F012807D068687C
:101060000007800F022809D16868C00306D52868E8
:10107000800337D5606800287ED033E001206268A5
:101080000004012A11D08100002A01D0052A10D0C5
:101090002A6882432A60286888432860606800289C
:1010A00014D0FFF7E1FD06460CE0296801432960F2
:1010B000F4E72A680A432A60F7E7FFF7D5FD801BAB
:1010C00064286FD828688003F7D50BE0FFF7CCFDC4
:1010D000064604E0FFF7C8FD801B6428F1D82868A5
:1010E0008003F7D420780126800700283BDA68685F
:1010F0000007800F07D068680007800F022809D119
:101100006868C00306D42868800715D5E068012800
:1011100032D111E0E0680028286815D030432860FB
:10112000FFF7A2FD074604E0FFF79EFDC01B022863
:10113000C7D828688007F7D52868F821884321692F
:10114000C900084328600EE0400840002860FFF70F
:101150008BFD074604E0FFF787FDC01B0228B0D8CF
:1011600028688007F7D42078000724D5E069002894
:10117000686A10D0304300E008E16862FFF774FD50
:10118000074604E0FFF770FDC01B022899D8686A83
:101190008007F7D50FE0400840006862FFF764FD64
:1011A000074605E09DE0FFF75FFDC01B022888D8D9
:1011B000686A8007F7D4207804274007002860DA9F
:1011C00000200190E869C00008D4E969B80601432D
:1011D000E961E96901400120009101906D480168D1
:1011E000C90511D40168821511430160FFF73CFD68
:1011F000009005E0FFF738FD0099401A642870D888
:1012000064480068C005F5D5A06801280AD0002808
:1012100001D0052810D0286A400840002862286ABA
:10122000B84301E0286A30432862A068002812D041
:10123000FFF71AFD00900AE0286A38432862F1E7B8
:10124000FFF712FD0099411A5348814249D8286A94
:101250008007F5D50DE0FFF707FD009006E0FFF7EA
:1012600003FD0099411A4C4881423AD8286A800708
:10127000F5D40198002804D0E969012000078143D2
:10128000E9612078C00635D5606901280CD0401D81
:10129000686B23D038436863686B4008400068631C
:1012A000FFF7E2FC064622E0686B38436863686B30
:1012B00030436863FFF7D8FC064604E0FFF7D4FC30
:1012C000801B02285BD8686B8007F7D5686BF82114
:1012D0008843A169C900084368630BE0B8436863A9
:1012E000F4E74CE0FFF7C0FC801B022847D8686B8E
:1012F0008007F7D4206A002846D069680907890F5B
:10130000022943D0012636060228286805D0B043BA
:101310002860FFF7A9FC044633E0B0432860FFF7DC
:10132000A3FC074604E0FFF79FFCC01B022826D859
:1013300028688001F7D4E86AE16A000900010843DF
:10134000E862616AA06A084369683D221204914319
:1013500008436860286830432860FFF785FC04462E
:1013600004E0FFF781FC001B022808D828688001F0
:10137000F7D509E0FFF778FC001B022801D903200C
:10138000FEBD28688001F5D40020FEBD0120FEBD11
:10139000001002400070004088130000042204493D
:1013A0000428086902D09043086170471043FBE7A6
:1013B00000E000E010B5164C607A002804D0A07B55
:1013C000FF2801D2401CA073032212491248FFF7E4
:1013D000C5F96078002100280AD1608BFF22401CEB
:1013E00080B2F5326083904202D90120207261837D
:1013F000A07800280AD0E28A7D23521C92B2DB003A
:10140000E2829A4202D9E182401CA07010BD000025
:101410000000002000020020F0000020094910B563
:10142000401E884201D9012010BD074C6061032194
:10143000081F00F083FE0020A0610720206100202B
:1014400010BD0000FFFFFF0000E000E010B5FFF757
:10145000B1FF10BD7047704770B502462032137F50
:10146000012B1BD00123137702245477046865688D
:101470007026B5436560046865680E68354365602D
:101480000468A5688026B543A5600068846849683B
:101490000C43846053770020107770BD022070BD2C
:1014A00070B5040005D025462035687F002802D09D
:1014B00006E0012070BD00202877204600F00AF8E1
:1014C00002206877211D206800F0D4FE0120687793
:1014D000002070BD08B500680A49884210D10A484A
:1014E0008269012149040A4382618069002208401F
:1014F000009011461520FFF747FC1520FFF73AFC36
:1015000008BD000000440140001002400268D3689A
:1015100001210B43D360006802680A430260002087
:10152000704700000168CA6852085200CA6000682B
:10153000016A064A114207D1016A9210114203D191
:10154000016849084900016000207047111100003E
:10155000704770B50446006801690025C9438907D2
:10156000002915DBC168C943890711D4E91E01614F
:1015700001202077206880698007204602D0FFF78D
:10158000E7FF04E000F0B4F8204600F047F92577C3
:1015900020680169C943490717D4C168C94349078D
:1015A00013D40421C9430161022020772068806997
:1015B0008005800F204602D0FFF7CAFF04E000F04C
:1015C00097F8204600F02AF9257720680169C94379
:1015D000090716D4C168C943090712D40821C943B1
:1015E0000161042020772068C0698007204602D06E
:1015F000FFF7AEFF04E000F07BF8204600F00EF9A4
:10160000257720680169C943C90617D4C168C94351
:10161000C90613D41021C94301610820207720682E
:10162000C0698005800F204602D0FFF791FF04E0DB
:1016300000F05EF8204600F0F1F825772068016997
:10164000C943C90708D1C168C943C90704D1891E64
:101650000161204600F03CF920680169C943090690
:1016600009D4C168C943090605D48021C943016171
:101670002046FFF7EFFE20680169C943490609D4F7
:10168000C168C943490605D44021C94301612046C8
:1016900000F08AF920680169C943890609D4C16844
:1016A000C943890605D42021C94301612046FFF7BB
:1016B000D2FE70BDF0B500680B4985B0884211D1EB
:1016C0000120049020240225002603276A46F0C248
:1016D00069460648FFF71AFA6A46F0C269460348A7
:1016E000FFF714FA05B0F0BD000400400004004804
:1016F0007047F8B5064604462036307F0D4601286F
:101700000DD001203077022070770427002A08D0FE
:10171000042A16D0082A2AD00C2A4DD137E00220FC
:10172000F8BD206800F0EEFD2068816908221143B1
:10173000816120688169B9438161206881692A6972
:1017400012E0206800F01AFE206882690121C902B7
:101750000A4382612068816901229202914381617A
:10176000206881692A6912021143816124E020689E
:1017700000F03EFE2068C26908210A43C261206869
:10178000C169B943C1612068C1692A6912E0206852
:1017900000F06AFE2068C1690122D2021143C161D2
:1017A0002068C269012189028A43C2612068C16937
:1017B0002A6912021143C16101207077002030773D
:1017C000F8BD70B5040005D025462035687F002897
:1017D00002D006E0012070BD00202877204600F0EE
:1017E0000BF802206877211D206800F043FD0120DE
:1017F0006877002070BD000008B500680549884280
:1018000007D10548C26902210A43C261C069084084
:10181000009008BD00040040001002407047000026
:1018200010B504460068012200F060FD0A482168F6
:10183000814205D00948814202D00948814204D141
:10184000486C0122D20310434864206801680122D9
:1018500011430160002010BD002C014000440140F4
:101860000048014030B504460068002200F03EFD0B
:10187000144A134821689310814205D012488142CE
:1018800002D0124881420AD1086A104207D1086A80
:10189000184204D1486C0125ED03A8434864206830
:1018A000016A114206D1016A194203D1016849084F
:1018B00049000160012020346077002030BD000025
:1018C000002C01401111000000440140004801407B
:1018D000F8B5074600682D49884215D12C480026E6
:1018E000C27801462B4D09790124002A11D0002924
:1018F00020D004212848FFF793FF254806712320B4
:1019000000012968C862E86001203968C0430861A5
:10191000F8BD002906D004211F48FFF781FF1C48AD
:10192000C470EBE704211C48FFF79CFF18480471C2
:101930001A48E6E704211848FFF794FF144C0120E9
:1019400020716079164A41002B68525ADA62144AB3
:101950001F28515AE96016D90E48FFF7E3FD0E48DB
:10196000FFF7E0FD0120A07160780028CCD1E0797C
:10197000401CC0B2E0710228C6D9E67102210948B4
:10198000FFF768F9C0E7401C6071BDE70044014003
:1019900000000020C0010020800100209411000000
:1019A000C00200200004004870477047F8B5036883
:1019B0000446D96918680D072D0F07D18A0605D589
:1019C000820603D5204600F05EFEF8BD9A68002D21
:1019D00064D0D507ED0FFF26213606402E435DD09B
:1019E000CE0706D0C60504D501261E62E36E33433A
:1019F000E3668F0702230426002F06DAD70704D0F8
:101A000027683B62E76E3743E7664F0706D5D20784
:101A100004D022681662E26E1A43E2660A0709D50C
:101A2000202202402A4305D0236808221A62E36E6E
:101A30001343E366E26E002AC7D0890604D5800608
:101A400002D5204600F01FFEE06E000703D4206898
:101A5000806840061CD5204600F0F0FD20688168B3
:101A6000490611D58168402291438160606E00284B
:101A70000AD012494163606EFEF7C0FE0028A4D070
:101A8000606E416B8847F8BD2046FFF78EFFF8BDBA
:101A90002046FFF78AFF0020E066F8BD0A0605D55C
:101AA000020603D5204600F0B5FEF8BD4906FCD578
:101AB0004006FAD5204600F0D0FDF8BDA525000867
:101AC00070B5040005D025466035687A002802D03C
:101AD00006E0012070BD00202872204600F026F8A4
:101AE0002420687220680168490849000160204686
:101AF00000F006FE0128EDD0606A002802D02046E2
:101B000000F0E2FC206841680122D202914341606A
:101B10002068816808229143816020680168012261
:101B200011430160204600F034FD70BD30B505461C
:101B300000681E4987B0884235D11D48826901215D
:101B400089030A43826180690840059003204002AE
:101B50000090022001900121032003900291049142
:101B600009206946C006FEF7D1FF134C11482060DA
:101B700000211020A160606021616161A16180206D
:101B8000E161E0602046FEF7ABFE002801D0FEF7E1
:101B9000CBFB2C66002211461B206562FFF7F4F890
:101BA0001B20FFF7E7F807B030BD00000038014008
:101BB000001002401C000240AC00002070B503463B
:101BC00060339C7A202C39D100290BD0002A09D00F
:101BD000012584682D03AC4206D10669002E03D18D
:101BE000CE0701D0012070BD1E7A012E26D001261D
:101BF0001E724165014640310A834A83FF22AC428E
:101C000004D10469002C07D10D4A05E0002C04D151
:101C10000469002C00D07F228A830021C166222221
:101C20009A72197201688A6832438A600068016892
:101C3000FF22213211430160002070BD022070BDDF
:101C4000FF010000104810B5417A02460123D27A04
:101C5000002908D00446817A2C346254052906D222
:101C6000491C817208E0552A06D1437204E0002124
:101C70004172817381724373034901220B3103481E
:101C8000FFF79CFF10BD0000000000203C0000207A
:101C9000F8B5054604466035687A20283BD100290E
:101CA0000BD0002A09D00123A0681B03984206D15B
:101CB0002069002803D1C80701D00120F8BD287A87
:101CC000012828D00120287220464030E164028299
:101CD00042820026E66621206872216E0F488862E3
:101CE000216E0F48C862216E0E480863206E1346AD
:101CF00046632768E16C3A462832206EFEF71CFEE8
:101D00002168402008622E72206881688022114379
:101D100081600020F8BD0220F8BD00000326000805
:101D200033260008B925000810B5084901200873BA
:101D3000C10209200022C006FEF790FF03490122DC
:101D40000B310348FFF73AFF10BD000000000020F0
:101D50003C0000207047FEE710B51748AA2101702B
:101D600016490A681649130A8A624A6242708370E9
:101D7000130CC370120E02710B8A43714A8A82716E
:101D80001B09F02412052340120F9A18C2718A8A87
:101D900002721205120F427200228A830122835CB2
:101DA0008C8B521C1B19D2B28B830A2AF7D399B29F
:101DB0008172090AC17210BD00030020047C000872
:101DC0000000002010B501220920D102C006FEF754
:101DD00045FFFFF7C1FF0C2202490348FFF758FFF8
:101DE00010BD0000000300203C0000200749332301
:101DF000486A1B02C2B29A1813020204120E9A1801
:101E000000021202000E1018086270470000002045
:101E100010B5094A3923506A1B020404010E240E2E
:101E200004190002000E201840185B1880B21083BD
:101E300019040818106210BD000000200949488AE2
:101E40000A8A00051205000A120D1018020A8218EB
:101E5000030CD2181206120FC032120610180862B4
:101E6000704700000000002070B5692300211B01AD
:101E7000144A23242401002802DA4D00535301E0C0
:101E80004D005453491C4000C9B22029F3D30E49D8
:101E900000200A6850620B68821E1A610B680B4AA8
:101EA000DA62CA600A49C870087148710948FFF7C8
:101EB0002DFB04210748FFF7B3FC0348FFF726FB7F
:101EC00070BD0000C0020020C001002028230000D7
:101ED00000000020800100203EB51F491F4800245B
:101EE00012C004600346012104220833446016C373
:101EF00044618461C461FF224462C232C4620262EE
:101F000081620838FEF736FB002801D0FEF70CFA94
:101F100001200003019000040290009469460F48DC
:101F2000FEF77CFA002801D0FEF7FEF902200090AF
:101F300069460A48FEF772FA002801D0FEF7F4F964
:101F40000320009069460548FEF768FA002801D092
:101F5000FEF7EAF93EBD000000240140F000002039
:101F600008B50C48416901221143416140691040A4
:101F70000022009011460920FEF706FF0920FEF717
:101F8000F9FE002211460A20FEF7FEFE0A20FEF7A7
:101F9000F1FE08BD00100240F0B5244887B0426948
:101FA000012189050A43426142690A40059242695A
:101FB00049110A43426142690A4005924269490057
:101FC0000A4342614069012208400590092002212C
:101FD000C006FEF743FE002203211548FEF73EFE31
:101FE000012109200022C902C006FEF737FE0226A1
:101FF00001250027032409206946C00602970096A0
:1020000001950394FEF782FD6846B0C06946084812
:102010000394FEF77BFDE8026A46039461C209203F
:102020006946C006FEF772FD07B0F0BD0010024021
:102030000004004810B508480649016002214160CB
:102040000649C1608160FEF715FE002801D0FEF749
:102050006BF910BD003000400C030020FF0F0000A2
:1020600010B50B48094901602F21416000218160B2
:102070002322016112014161C2608161FFF710FA00
:10208000002801D0FEF750F910BD000000440140C7
:10209000C001002010B519488AB01749016000241A
:1020A0002F218460416004611A218461C160FFF7BF
:1020B00088FB002801D0FEF737F9079407A90F48DD
:1020C0000894FFF7C9F9002801D0FEF72DF9602028
:1020D00000900D2001900294042269460494074860
:1020E000FFF707FB002801D0FEF71EF90348FFF7B2
:1020F000E1FA0AB010BD0000000400408001002099
:1021000010B50C480A4901604B21C901416000210A
:102110008160C16001618161C1610C220162426123
:102120004162FFF7CDFC002801D0FEF7FDF810BD9D
:10213000003801403C000020704700008307FF2268
:10214000DB0E9A408907090E994000280BDA000738
:10215000000F0838830808489B001818C369934388
:102160000B43C3617047830804489B001B18186821
:10217000904308431860704700ED00E000E400E081
:102180007047704710B5FEF7AFFDFFF75FF910BD60
:1021900070B594B00124009401941020022606A981
:1021A000059451C100030990000100250A900B9588
:1021B0006846FEF749FF002800D0FEE707200C9094
:1021C0000E9501210D960F950CA8FEF755FE0028DF
:1021D00000D0FEE710A812951094FEF7D9FD002854
:1021E00000D0FEE7FEF7DEFE7D21C900FDF778FF97
:1021F000FFF714F90420FFF7D1F800221146501E12
:10220000FEF7C2FD14B070BD1348016801221143EE
:1022100001604168114A114041600168104A114053
:1022200001600168012292049143016041683F22EC
:10223000120491434160C16A09090901C162016B3D
:10224000FF22143291430163416B49084900416305
:102250000021816070470000001002400CB8FF08A8
:10226000FFFFF6FE10B50248FFF773F910BD00003E
:10227000C001002070B50268174B184E984201D07B
:10228000B04203D17024A2434C682243144C154D34
:10229000984208D0B04206D0134EB04203D0A042BC
:1022A00001D0A84204D103263602B243CE6832439D
:1022B0008026B2434E69324302608A68C2620A686D
:1022C0008262984203D0A04201D0A84201D109699C
:1022D00001630121416170BD002C014000040040F8
:1022E00000440140004801400020004010B5012397
:1022F000046A8B409C430462036A8A40134303626E
:1023000010BD0000F0B5026A520852000262056A70
:10231000436882697024A24392080C6892001443B7
:10232000022295438A68134E2A43114DA84204D0D5
:10233000B04202D0104FB84206D10827BA43CF6846
:102340001743042297433A46A84204D0B04202D031
:10235000094DA84206D103252D02AB434D691D430B
:102360008B692B4343608461496841630262F0BD1D
:10237000002C0140004401400048014070B5026A51
:1023800010239A430262046A4368826973252D020E
:10239000AA430D682D021543202294438A68120136
:1023A0002243104CA04208D11446CA688026B44388
:1023B000120122434024A24305E00B4CA04202D06C
:1023C0000A4CA04208D10324A402A3434C69A400F0
:1023D0001C438B699B00234343608561496881638B
:1023E000026270BD002C01400044014000480140E1
:1023F00070B5026AFF2301339A430262046A43689C
:10240000C2697025AA4392080D6892001543012203
:10241000520294438A6812022243104CA04207D110
:10242000C414A243CC68240222430615B24305E03B
:102430000B4CA04202D00B4CA04208D10324240331
:10244000A3434C6924011C438B691B012343436054
:10245000C5614968C163026270BD0000002C014083
:10246000004401400048014030B5026A01231B03CB
:102470009A430262056A4268C36973242402A34333
:102480000C6824021C4301235B039D438B681B03E0
:102490002B430A4DA84205D0094DA84202D0094D50
:1024A000A84205D10125AD03AA434D69AD012A43D8
:1024B0004260C46149680164036230BD002C014080
:1024C000004401400048014010B5818CC90707D085
:1024D00001684A6801235B049A43836A1A434A608D
:1024E000818C890707D501684A6801231B049A4338
:1024F000C36A1A434A60818C490707D501684A6854
:1025000001239B049A43036B1A434A60818C090799
:1025100007D501684A680123DB039A43436B1A43DA
:102520004A60818CC90607D50268916801231B03A4
:102530009943836B19439160818C890607D50168A3
:102540008A6801235B039A43C36B1A438A60818CB8
:10255000490612D503685A6801210905046C8A43AB
:1025600022435A60026C8A4207D1026851680323F1
:102570005B059943436C19435160818C090607D56B
:1025800001684A680123DB04806C9A4302434A6075
:1025900010BD0021C1662022603042728272017239
:1025A0000846704710B5406A0022014640314A8310
:1025B0004A82FFF7FAF910BD70B5446A25466035C6
:1025C000687A0026212808D120688068000604D592
:1025D00052200653204600F04DF8A87A222808D150
:1025E00020688068400604D55A200653204600F033
:1025F00025F8E06E10210843E0662046FFF7D5F984
:1026000070BD10B501460968406A096889060DD495
:10261000002252210A5201688A6880239A438A6004
:102620000068016840221143016010BDFFF77CFB88
:1026300010BD10B5406AFFF78DFB10BD01680A6838
:10264000FF2321339A430A6001688A6852085200C6
:102650008A60202160308172704710B501680A6875
:1026600040239A430A60202269210A54FFF75CFB49
:10267000002010BD01680A68C0239A430A60202127
:1026800060304172704770B5024640320346603395
:10269000948B9D7A0168222D05D088690822104309
:1026A0008861022070BD898C012685683603B54299
:1026B00002D10569002D0BD02140446D651C456594
:1026C0002170518B491E0904090C518307D015E074
:1026D000456D21402980416D891C4165F1E7016804
:1026E0000A68FF242134A2430A6001688A685208FC
:1026F00052008A6020219972FFF7A4FA002070BD71
:10270000F8B504462369A268E6691A436369102193
:102710003343002026681A4333680546394F3B404F
:102720001343336023685A6803263603B243E668CE
:1027300032435A60236AA26926681A43B3680B279A
:102740003F02BB431343B3602F4A126B9207920FB1
:1027500006D0012A08D0022A08D0032A07D101E0B6
:10276000002104E0022102E0042100E0082101220E
:10277000E369D203934224D100290CD002290DD061
:10278000042913D0082917D00125010909010007E0
:10279000400F084332E0FEF70BFC09E061681B4A7A
:1027A00048088018FDF79CFC80B2EEE7FEF710FCAD
:1027B000616840004A08F4E7616801224808120491
:1027C000EFE7002908D0022909D004290BD00829F5
:1027D0000ED001252846F8BDFEF7EAFB05E061684A
:1027E0000B4A480806E0FEF7F3FB61684A0801E07F
:1027F000616848088018FDF773FC80B22168C860E2
:10280000E8E70000F369FFFF001002400024F40035
:1028100000127A006921095C212901D00220704749
:1028200002464032518A002912D0012381681B03DD
:10283000994202D10169002915D0C16C4B1CC364B7
:10284000006809780185508A401E50820020704738
:1028500001680A6880239A430A6000680168402280
:1028600011430160F2E7C16C03680988C905C90D0D
:102870001985C16C891CC164E5E7000010B50248E8
:10288000FFF794F810BD00003C00002030B516485A
:102890000168164881624162491C01D108214162E8
:1028A000002141708170C182C170017141710122AA
:1028B0008271C1710183418341728172817301739D
:1028C00041730B4B0182418281821C4600203C34C3
:1028D0001D46783542009952401CA152C0B2A952FF
:1028E0001E28F7D330BD0000047C00080000002043
:1028F0000C0200201FB50446FEF7F6F80A49002036
:102900000191012100900291039003A96846FEF70E
:1029100053F806480023426A21460220FEF7A6F833
:10292000FEF79AF81FBD0000047C0008000000209C
:1029300002E008C8121F08C1002AFAD17047704788
:10294000002001E001C1121F002AFBD170470000E6
:10295000FEF7D2F9FFF71CFCFFF71EFBFFF700FBA9
:10296000FFF7BAFAFFF796FBFFF7CAFBFFF778FB12
:10297000FFF760FBFFF78AFF09250121ED06002222
:10298000C9022846FEF76AF9012254495448FFF764
:1029900015F90127514C534E0B3CA7713A46394665
:1029A0003046FEF75BF9012202213046FEF756F968
:1029B0007D20C000FDF7F5FF012202212846FEF729
:1029C0004DF94A4848490068016026462C360025E2
:1029D000FDF7C0FB4548FEF77FF9607A002805D077
:1029E000A07B322802D96572A573A572607B00288E
:1029F00021D0002165730120325C401C5118C0B207
:102A0000C9B20528F8D37079884214D130780F28DC
:102A10000FD01E280DD13079F17800020818B17856
:102A20000002081871780002081860623048FFF749
:102A300061FFFFF7C7F96078002803D001282ED086
:102A40006570C5E7207A002811D0A07900280ED043
:102A5000A5716420FDF7A5FFE079002817D00128B3
:102A600018D02572FFF7EAF9206AFFF7FDF9608AAE
:102A7000642807D9A17800290FD0022902D96770EC
:102A8000A570E5823228A3D2A570E582A0E7FFF702
:102A9000ADF9E9E7FFF7BCF9E6E7A770F2E7A0793F
:102AA000002807D06420FDF77CFFFFF7C7F9206AF4
:102AB000FFF7DAF9608A32280DD2A078002808D012
:102AC0001F2885D96570A570E582E571A771277209
:102AD0007EE7A7707CE76428B3D9D5E70B00002018
:102AE0003C00002000040048CCCC00000C03002077
:102AF000047C000800000000000000000102030444
:102B00000607080900000000010203042C2B00083E
:102B1000000000203C00000030290008682B00085D
:102B20003C000020040700004029000800000000CD
:102B30000000000000000000000000000000000095
:102B40000000000000000000000000000000000085
:102B50000000000000000000000000000000000075
:082B60000000000000127A00E1
:04000005080000B13E
:00000001FF
