:020000040800F2
:1000000078070020450100086B380008CF3400084D
:1000100069380008B90800087D3F000800000000AA
:100020000000000000000000000000008F38000801
:10003000B1090008000000008D380008DD38000814
:100040005F0100085F0100085F0100085F01000810
:100050005F0100085F0100085F0100085F01000800
:100060005F0100085F0100085F0100083109000816
:100070003D0900085F0100085F0100085F010008FA
:100080005F0100085F010008750500085F010008B6
:100090005F0100085F0100085F0100085F010008C0
:1000A0005F0100085F0100085F0100085F010008B0
:1000B0005F010008AD3900085F0100085F0100081A
:1000C0005F0100085F0100085F0100085F01000890
:1000D0005F0100085F0100085F010008713F000830
:1000E0005F0100085F0100085F0100085F01000870
:1000F0005F0100085F0100085F0100085F01000860
:100100005F0100085F0100085F0100085F0100084F
:100110005F0100085F0100085F010008B9390008AD
:100120005F0100085F0100085F0100085F0100082F
:10013000DFF80CD000F00CFA0048004769400008D6
:10014000780700200648804706480047FEE7FEE79C
:10015000FEE7FEE7FEE7FEE7FEE7FEE7FEE7FEE777
:100160006539000831010008202A04DB203A21FA11
:1001700002F00021704721FA02F3D040C2F12002C0
:1001800091400843194670472DE9FE4F804681EAA9
:100190000300C00F0C46009021F0004123F0004501
:1001A000B8EB0200A94105D24046214690461C46C4
:1001B0000B46024623F00040104304D1404621463E
:1001C00003B0BDE8F08F270DC7F30A00C3F30A514F
:1001D0000290401A0190402866DAC3F3130040F4FD
:1001E000801B0098924620B10023D2EB030A63EBF8
:1001F0000B0B01985946C0F14002504600F028F917
:1002000006460D4650465946019A00F030F910EB6B
:1002100008006141002487EA115284EAE7731A4317
:100220003BD0009A3AB3019A012A4FEA075210DCF8
:10023000001B61EB02014FF0004202EA0752CDE9D8
:100240000042001C41F5801132462B4600F02EF989
:10025000B6E7001B61EB0201001C41F5801300189A
:100260005B412018A2F5001747EB030140EAD57067
:10027000B6196D4111E06D084FEA360645EAC075C2
:100280004FEA0752001B61EB0201001C41F580118F
:1002900049084FEA30000019514132462B4603B05D
:1002A000BDE8F04F00F0F5B80098012240000023AF
:1002B000D0EB020263EBE073009821464FEAE07452
:1002C000B8EB000061EB0401E9E783F000435BE772
:1002D00081F0004158E72DE9FE4F81EA030404F064
:1002E000004421F0004100944FF0000B23F0004344
:1002F00050EA010402D052EA030404D1002001466E
:1003000003B0BDE8F08FC3F30A54C1F30A552C447F
:10031000A4F2F3340194A0FB0254C1F3130141F49D
:100320008011C3F3130343F4801301FB024400FB69
:10033000034E840A970A44EA815447EA8357A4FB90
:10034000076802958D0A05FB07854FEA932C04FB8D
:100350000C542705029D4FEA065847EA1637B5EBBD
:1003600008056EEB070C870E920E47EA811742EAEA
:100370008312A7FB0201B6EB0B0164EB00042B0D0B
:1003800043EA0C335E1844EB1C50DA465146E7FB57
:100390000201C5F313044FEA0B3343EA14534FEA47
:1003A0000432019C43EA0603A4F10C040294009C6D
:1003B000CDE900B400F07AF8A2E70EB5C10F80EAEB
:1003C000E0700844CA07002140F233438DE80E0074
:1003D0000A460B4600F06AF803B000BD0EB540F2C5
:1003E000334102910021CDE900110A460B4600F08D
:1003F0005DF803B000BDC1F30A5210B5C1F313019B
:1004000040F2FF3341F480119A4201DA002010BD1E
:1004100040F233439A42A2F2334203DC5242FFF7E6
:10042000A3FE10BD904010BD30B5002904DB4FF095
:100430000044404264EB0101002B04DB4FF0004418
:10044000524264EB0303994208BF904230BD000062
:10045000202A04DB203A00FA02F100207047914084
:10046000C2F1200320FA03F3194390407047202A79
:1004700006DBCB17203A41FA02F043EAE07306E0CC
:1004800041FA02F3D040C2F12002914008431946DC
:10049000704710B5002B08DA401C41F1000192189A
:1004A0005B411A4301D120F0010010BD2DE9F04D50
:1004B00092469B4611B1B1FA81F202E0B0FA80F2A5
:1004C00020329046FFF7C4FF04460F4640EA0A0078
:1004D00041EA0B0153465A46084303D120463946A8
:1004E000BDE8F08D114653EA010015D0C8F1400275
:1004F0005046FFF739FE05460E46504659464246DD
:10050000FFF7A6FF084301D0012000E000200543CB
:1005100046EAE0762C4337430A984FEA4453A0EB6F
:1005200008004FEAD4240A304FF0000244EA47544E
:100530004FEAD72502D500200146D1E70105101961
:100540006941DDE9084500196941BDE8F04DA0E7C2
:10055000064C074D06E0E06840F0010394E8070010
:1005600098471034AC42F6D3FFF7E6FDEC440008A0
:100570000C450008014800F085BD0000DC020020A9
:1005800070B5044600688168C943C9071CD18168F9
:1005900021F00101816001F0CFFB05460FE000BFB3
:1005A00001F0CAFB401B022809D9A06A40F01000E4
:1005B000A062E06A40F00100E062012070BD2068A6
:1005C0008068C043C007EBD0002070BD10B5014665
:1005D000406A826A12F0500F05D0006A026BBDE8D3
:1005E000104008461047816A41F400718162016839
:1005F0008968C1F3424107290CD1C16851B9816AA8
:1006000021F480718162816AC90403D4816A41F056
:100610000101816200F0F2FC10BD10B5406A816AF0
:1006200041F040018162C16A41F00401C16200F001
:1006300028FD10BD10B5406A00F022FD10BD00007D
:10064000F8B500260446009600688168C943C907CA
:1006500028D0816841F00101816013481349006886
:10066000B0FBF1F000E0401E00900028FBD101F04B
:1006700063FB054611E000BF01F05EFB401B022852
:100680000BD9A06A40F01000A062E06A40F00100BF
:10069000E06284F824600120F8BD20688068C043CF
:1006A000C007E9D10020F8BD0000002040420F0043
:1006B0002DE9FC5F7E4CAA207E4D20700F206070DB
:1006C0006F78A770F84300F0FF0B84F803B0A878A8
:1006D0002071C0436071288DA071698EE1714FF067
:1006E000F00808EA1010C1F3032108442072A98C15
:1006F0006172E88CA07208EA1111C0F3032008446B
:10070000E072E87A2073688D6073EE8DC0F3032089
:10071000F1B20191A173C6F303210091E17320743A
:10072000A86E6074010AA174010CE174000E2075BA
:10073000B5F840006075000AA075E86EE075010A22
:100740002176010C6176000EA076A86FE076010A92
:100750002177010C6177000EA07705F18009D9E9B6
:100760000A01FFF748FEA887E077C0F3032084F86A
:100770002000B9F8000084F82300000A84F824005F
:10078000E88E4FF0060C00F0FF0A84F825A0298FB0
:1007900008EA101001F0FF09C1F30321084484F8AE
:1007A0002690C2B284F82720697984F82810286E30
:1007B00084F82900030A84F82A30030C84F82B30CB
:1007C000000E84F82C00AB8B84F83330E88B84F86F
:1007D000340008EA1313C0F30320184484F83500EA
:1007E000288CC5B2C0F3032384F8365084F8373020
:1007F000002000BF14F80C800CF1010C40440CF0F8
:10080000FF0C80B2BCF1380FF4D304F8380F000AA3
:100810006070AA20A0701E20E070277184F805B0D7
:10082000A171244884F807A084F808906272B0F897
:100830004870A772B0F84C20F021E27201EA171755
:10084000C2F303223A44227330F8442F627347887C
:10085000A77301EA1212C7F303273A44E273154F54
:10086000C28822748037C2F30322FE60019E667440
:10087000009EA674E2744289A2768089E07601EA3D
:100880001211C0F30320084420776577A377002175
:100890003E20383C225C401C1144C0B289B257282B
:1008A000F8D304F8571F080A6070BDE8FC9F0000E9
:1008B0006202002008000020FEE700000D4A0C49FB
:1008C0000020C2E90A01A2F180000B4AB0F86410CE
:1008D000891E89B2C1851160817841F06001817003
:1008E00040F6B931816700214187417270470000AD
:1008F00000004940880000202C2C014009480021BC
:10090000C170827802F01F028270074A4186126825
:1009100091634FF6FF71C1850448016004210248CC
:1009200002F0B2BB08000020540100202C2C014032
:10093000014800F09BBD00000C030020014800F0BE
:1009400095BD00001C01002010B504686360436879
:10095000102B036803D099600068C26010BD9A60D4
:100960000068C16010BD00001048C16D0A0F002171
:100970008273032A0DD0092A13D00C2A0DD0B0F8A7
:1009800040104FF6FF72914202D2491CA0F840106D
:100990007047A0F8421000F00DB8A0F8421000F027
:1009A0004FB8A0F8421000F071B800000800002015
:1009B00070470000F0B5214800244FF4FA75C36D6C
:1009C00000F18001C3F303628273032A30D0092A45
:1009D00031D0B0F840204FF6FF739A4202D2521C39
:1009E000A0F84020026FAA4221D2426FAA421ED232
:1009F0004D688A68C5F30741C5F3072396B2CF183F
:100A000005F0FF0C6744C2F307421744BE420ED103
:100A1000C466847826060AD4EDB205EB022203EB05
:100A2000022201EB0221016644F080018170F0BDD9
:100A300004674B60D9E744678B60D3E70800002068
:100A4000114910B5C86DF02200EB102402EA1052D3
:100A500004EB104303F0F003CA739A420AD1C0F3C7
:100A60000B028A83C0F30B30C88300208867012003
:100A7000887410BDB1F840004FF6FF729042F8D272
:100A8000401CA1F8400010BD080000200948C16DBD
:100A9000C1F30B02C1F30B318A4201D102847047CA
:100AA000B0F840104FF6FF729142F8D2491CA0F8FE
:100AB0004010704708000020FEE7000006490020B3
:100AC000C8610648016941F004010161016941F012
:100AD00040010161704700005803002000200240DF
:100AE000064A0021D16106490A6942F002020A6100
:100AF0004861086940F040000861704758030020D1
:100B000000200240044B0022DA61044A136943F0DA
:100B10000103136101807047580300200020024048
:100B20000E49C868C2060E4803D5C26942F00202E7
:100B3000C261CA68520703D5C26942F00102C261AC
:100B4000CA69D20707D0C26942F00402C261C8690B
:100B500020F00100C8611420C860704700200240E6
:100B60005803002070B5054601F0E6F80646114C22
:100B700009E0681C07D025B101F0DEF8801BA8420F
:100B800001D9032070BDE068C007F2D1E06880069B
:100B900001D52020E060E068C00605D4E069C00708
:100BA00002D1E068400703D5FFF7BAFF012070BD0E
:100BB000002070BD002002400D4800F18002018D30
:100BC000A0F84810418EA0F84C10818CA0F8441079
:100BD000C18CA0F84610418DA0F84A10C18DD1609B
:100BE00030F81C1F4186418881868188C186704704
:100BF000080000201248AA21124A01704B214170BE
:100C000051788170C943C17091790171D18C417162
:100C1000C1F303218171D18D891E1186C171C1F388
:100C200003210172002141720A460521435C491CDF
:100C30001A44C9B2D2B20A29F8D3827270470000AE
:100C4000D1020020080000202DE9F05F3E4C002575
:100C50000421A5866566A5713C4802F0F9F90421D6
:100C60003A4801F0AAFE40F28A20384F384EE0851B
:100C70004FF02D094FF00C0A4FF01E0B4FF6FF7886
:100C800080B23060B0FBFAF138688163E079D8B1A6
:100C9000012020724746C6F800802C4801F0E4FE8F
:100CA00004212A4802F0F0F9E570A07840F0010034
:100CB000A0706079052803D205206071FFF77CFFE2
:100CC000E78584F806902AE0142000F07FFEE08C8F
:100CD000A18E884202D9A086E18D616684F806B0B3
:100CE000B0F5486F21D965863868856384F8069029
:100CF0004746C6F80080154801F0B6FE04211348A7
:100D000002F0C2F9A07840F00100A07060790428D8
:100D100003D204206071FFF74FFFE785E570A078EC
:100D200000F09F00A070BDE8F09FE08D40F2EE2142
:100D3000801C80B2E0858842A2D9F020A071BDE875
:100D4000F05FFFF7BBBD0000080000205401002049
:100D50002C2C01402DE9F05F474C00250421A5868D
:100D60006566A571454802F073F90421434801F016
:100D700024FE40F28A20414F414EDFF808B1E08561
:100D80004FF02D094FF6FF784FF4006AE08D306088
:100D9000396840088863E079D8B10120207247465D
:100DA000C6F80080354801F05FFE0421334802F0A8
:100DB0006BF9E570A07840F00100A070607905281B
:100DC00003D205206071FFF7F7FEE78584F80690EF
:100DD00029E0142000F0FAFDE08CA18E884202D9AF
:100DE000A086E18D61661E21A171B0F5486F28D9FA
:100DF00084F806906586386885634546C6F80080A5
:100E00001E4801F031FE04211C4802F03DF9A07893
:100E100040F00100A0706079042803D204206071C2
:100E2000FFF7CAFEE58501225146584600F07EFFD5
:100E3000FFF7E0FEBDE8F05F0B221349134802F014
:100E4000E5BAE08D40F2EE21801C80B2E085884258
:100E500001D9F020A07101225146584600F066FFEA
:100E6000FFF7C8FE0B220849084802F0CFFAA07924
:100E7000F0288BD1BDE8F09F08000020540100202D
:100E80002C2C014000080140D1020020DC00002091
:100E900070470000F8B50025009590F82420AE4674
:100EA000012A1ED0012280F824204A681F244FF412
:100EB0007873072A17D20668776B93FAA3FCBCFAFB
:100EC0008CFC521E02FB0CFC04FA0CF4A74393FAB0
:100ED000A3F3B3FA83F30C685A4394402743776330
:100EE0002DE00220F8BD06680D2A14D2376B93FA64
:100EF000A3FCBCFA8CFCD21F02FB0CFC04FA0CF421
:100F0000A74393FAA3F3B3FA83F30C685A439440CC
:100F10002743376313E0F76A93FAA3FCBCFA8CFC0F
:100F20000D3A02FB0CFC04FA0CF4A74393FAA3F36A
:100F3000B3FA83F30C685A4394402743F7620A6874
:100F40003823072406680A2A14D3F76893FAA3FC07
:100F5000BCFA8CFC0A3A02FB0CFC04FA0CF4A74322
:100F600093FAA3F3B3FA83F38C685A43944027436C
:100F7000F76012E0376993FAA3FCBCFA8CFC02FB21
:100F80000CFC04FA0CF4A74393FAA3F3B3FA83F32B
:100F90008C685A439440274337610A68102A01D06D
:100FA000112A20D1124B02689A4217D193681B0272
:100FB00019D4936843F4000393600968102912D18F
:100FC0000C490D4A0968B1FBF2F101EB81014900BE
:100FD00000E0491E00910029FBD104E0816A41F044
:100FE00020018162012580F824E02846F8BD000038
:100FF000002401400000002040420F0070B51D4851
:101000001D4C0188C1F30B0121858188C1F30B01BF
:1010100061850189C1F30B01A1858189C1F30B01B0
:10102000E184008AC0F30B00A0844843FFF7C5F9B0
:1010300004F18005D5E91023FFF74DF9C5E9080152
:10104000A278C2F34112032A12D1D5E90A23FFF78D
:10105000EBF9608E02D238B1401E04E0E18DB0EBB6
:10106000510F01D2401C6086044980B20968886330
:1010700070BD00000802002008000020540100207C
:101080007047704710B5044600684168890626D548
:101090000168890723D5A16AC90603D4A16A41F46E
:1010A0000071A1628168C1F34241072910D1E16852
:1010B00071B9416821F020014160A06A20F480707C
:1010C000A062A06AC00403D4A06A40F00100A0623C
:1010D0002046FFF793FF21686FF012000860206838
:1010E000416809062ED5016849072BD5A16AC906B2
:1010F00003D4A16A41F40051A1628168C1F30231B5
:10110000072909D04168490515D48168C1F34241D6
:10111000072910D1E16871B9416821F0800141606F
:10112000A06A20F48050A062A06AC00503D4A06A1F
:1011300040F00100A0622046FFF7AAFE21686FF090
:101140000C0008602068416849060DD50068C0079A
:101150000AD0A06A40F48030A062204600F0AAF8CD
:1011600021686FF00100086010BD00002DE9F0411A
:1011700004004FF0000503D0A06A002618B108E073
:101180000120BDE8F081E66284F82460204600F08A
:1011900093F82046FFF7F4F90146A06AC00600D490
:1011A00021B1A06A40F01000A0627AE0A06A20F4A9
:1011B000885040F00200A0623B4823688342E06907
:1011C00004D1B0F5402F01D14FF40020022292FA51
:1011D000A2F2E768B2FA82F207FA02F210436268FA
:1011E0004FF4807C1043A268624509D0012A07D0E1
:1011F0005FF00002D4F814E0BEF1010F02D00AE063
:101200006246F7E7C7B1A76A47F02007A762E76A17
:1012100047F00107E7625F6827F4694717435F609B
:1012200023689A68214F3A4002439A60A268624557
:1012300010D0012A0ED016E04FF4604EA7699EFA36
:10124000AEFEBEFA8EFE7F1E07FA0EF7174347F476
:101250000062E0E74FF47002256992FAA2F2B2FA56
:1012600082F26D1E95402268D36A23F470032B43EB
:10127000D362226892680E4B1A40824207D1E6621E
:10128000A06A20F0020040F00100A0620AE0A06A1B
:1012900020F0020040F01000A062E06A40F001007F
:1012A000E062012108466CE7003C0140FDF7E1FFE8
:1012B000FE0E1FFF7047000030B50546006821494B
:1012C00085B088423CD12048816941F40071816138
:1012D0008069032400F4007004903120CDE90004FB
:1012E00069461A4800F02EFC0420CDE90004694646
:1012F000174800F027FC0120CDE900046946154895
:1013000000F020FC154C1448802120600020606013
:10131000C4E90201890021618900C4E90510E06186
:10132000204600F0FFFA08B1FFF7C6FB2C6200224E
:1013300011461220656200F0ABFD122000F09CFD0A
:1013400005B030BD002401400010024000100140F3
:1013500000080140000C0140080002400C0300207E
:101360002DE9F047894604463B4900683B4F0E1D76
:101370009046884201D0B84207D1306810F4702FEF
:1013800003D001252846BDE8F08794F82400012801
:101390000CD0012084F824002046FFF751F9050005
:1013A0004FF0000004D084F82400EBE70220EAE7C5
:1013B000A16A40F60162914341F48071A162216803
:1013C000B94218D1326812F4702F14D0A16A41F4D6
:1013D0008011A1623168490505D5A16A21F4005147
:1013E00041F48051A162A16AC9040AD5E16A21F0E1
:1013F0000601E16206E0A26A22F48012A262496854
:10140000E9E7E06284F82400216A15488862216ACD
:101410001448C862216A1448086321686FF002000A
:1014200008602068816841F48071816021684346CA
:101430004A464C31206A00F09DFA20688168C1F369
:1014400042410729816803D041F48011816099E706
:1014500041F4A001FAE70000002401400028014007
:10146000CD050008350600081B0600082DE9F05FD1
:101470000446F94AF84DF84EF74F0068DFF8D89364
:10148000DFF8D4A3DFF8D0B3D114783D643E503FE9
:101490004FF4000E4FF4004C4FF40028A9F13C0922
:1014A000AAF1280AABF1140B904221D9EB4A136838
:1014B000A8420FD0B0420FD0B84213D0484513D045
:1014C000504513D0584501D1724624E0E34A083212
:1014D00090423CD108221EE080221CE0DF4A3032DC
:1014E000904239D10A4616E0624614E0424612E0C4
:1014F000D94A803A1368A842ECD0B042ECD0B84246
:10150000F0D04845F0D05045F0D05845DCD0D24A14
:101510009042DBD10205134279D00268D243120710
:1015200075D4026822F008020260CB4A206890421B
:1015300032D9A84219D0B0421DD0B84228D048456F
:1015400023D0504523D058450BD1714620E0C34AE3
:101550001C329042C2D1BFE7C04A44329042C5D14A
:10156000C2E7BE4A0832904201D1082110E0BB4ACE
:101570001C32904201D180210AE0B84A30329042B8
:1015800006D0B6494431884201D1614600E0414667
:10159000B248001D01602CE0A84214D0B04218D01F
:1015A000B84223D048451ED050451ED0584501D1E1
:1015B00071461BE0904202D14FF0006116E0A74A4D
:1015C0000832904201D1082110E0A44A1C32904216
:1015D00001D180210AE0A14A3032904206D09F49D1
:1015E0004431884201D1614600E041469A48803842
:1015F0004160606B40F001006063042084F82100CA
:10160000002084F82000216B09B120468847924AC7
:10161000206811154FF4800E4FF4804C4FF4802851
:10162000904221D98D4A1368A8420FD0B0420FD002
:10163000B84213D0484513D0504513D0584501D176
:10164000724624E0854A083290423FD104221EE0CF
:1016500040221CE0814A303290423CD10A4616E0DA
:10166000624614E0424612E07B4A803A1368A84280
:10167000ECD0B042ECD0B842F0D04845F0D0504564
:10168000F0D05845DCD0744A9042DBD1C2041342FA
:1016900075D00268D243520771D40268920603D40F
:1016A000026822F0040202606B4A2068904232D93C
:1016B000A84219D0B0421DD0B84228D0484523D006
:1016C000504523D058450BD1714620E0634A1C3267
:1016D0009042BFD1BCE7614A44329042C2D1BFE7D9
:1016E0005E4A0832904201D1042110E05B4A1C326C
:1016F000904201D140210AE0584A3032904206D04F
:1017000056494431884201D1614600E04146534880
:10171000001D01602CE0A84214D0B04218D0B8429D
:1017200023D048451ED050451ED0584501D17146A2
:101730001BE0904202D14FF0806116E0474A083228
:10174000904201D1042110E0444A1C32904201D160
:1017500040210AE0414A3032904206D03F494431AC
:10176000884201D1614600E041463B4880384160F3
:10177000112084F82100E16A09B120468847364AE1
:10178000206851154FF4005C4FF4003E904228D978
:10179000324B1B68A84212D0B04213D0B8421AD0C4
:1017A00048451AD050451AD0584502D14FF4001878
:1017B0002AE0DFF8A88008F10808404544D14FF03E
:1017C000020821E04FF020081EE0DFF8908008F1C9
:1017D0003008404544D1884616E0E04614E0F04623
:1017E00012E01D4B803B1B68A842E8D0B042E9D014
:1017F000B842F0D04845F0D05045F0D05845D5D04B
:101800009042D6D14FF0007813EA080F70D00368E9
:10181000DB439B077FD403689B0603D4036823F054
:10182000020303602068904239D9A84221D0B04217
:1018300025D0B8422FD048452AD050452AD0584507
:1018400013D14FF4001126E0DFF8108008F11C08D6
:101850004045BAD1B6E700008000024000040240D3
:10186000DFF8B8804045BAD1B7E72C4A3C3A9042FD
:1018700001D102210FE0294A283A904201D12021CA
:1018800009E0264A143A904205D02449884201D101
:10189000614600E071462148403801602CE0A842D2
:1018A00015D0B04219D0B84224D048451ED050457A
:1018B0001FD0584502D14FF400111BE0904202D1D5
:1018C0004FF0007116E0154A3C3A904201D10221D6
:1018D00010E0124A283A904201D120210AE00F4A32
:1018E000143A904206D00D49884202D1614601E087
:1018F00011E071460A484160606B6063012084F822
:101900002100002084F82000A16A002903D020468D
:10191000BDE8F05F0847BDE8F09F000044040240C6
:101920000000024070B520B190F82110002411B1E0
:1019300003E0012070BD80F82040022180F82110D2
:1019400003681A6843F6F0718A43D0E90115294308
:10195000D0E903563543294345692943856929431D
:10196000C5692943114319604463012180F821109E
:10197000002070BD70B5044690F82000012823D0E7
:10198000012084F82000022084F8210020680568E6
:1019900025F0010505602046FEF7D6FF20680168A6
:1019A00041F0020101602068016841F0040101601A
:1019B0002068016841F0080101602068016841F079
:1019C00001010160002070BD022070BD31B500F042
:1019D000B3F9044600F0B0F90099001B8842F9D32E
:1019E00038BD00002DE9F047054626480F46012680
:1019F000017E01290FD00121814601762868DFF898
:101A000088804CF25034022808D0A2462046FFF7C6
:101A1000A9F8A8B131E00220BDE8F0872046FFF721
:101A2000A1F808BB0120FFF749F82046FFF79AF814
:101A3000D8F81010064621F00401C8F810101CE078
:101A40004FF0FF303860AC6811E02046FFF748F8EF
:101A50005046FFF787F8D8F81010060021F0020171
:101A6000C8F8101001D03C6007E004F50064D5E927
:101A7000020100EBC120A042E7D8002189F818102C
:101A80003046C9E75803002000200240034801699E
:101A900041F08001016100207047000000200240F9
:101AA0002DE9F05F07461C4888460024017E154654
:101AB0001E46012909D00121814601764CF2503A97
:101AC0005046FFF74FF818B122E00220BDE8F09F22
:101AD000012F02D0022F00D00427D346DFF83CA00C
:101AE000220128463146FEF73FFB81B208EB440055
:101AF000FFF708F85846FFF735F8DAF8102022F01B
:101B00000102CAF8102018B9641CE4B2BC42E7D341
:101B1000002289F81820D9E758030020002002404D
:101B200005480169090605D5044941600449416039
:101B300000207047012070470020024023016745C4
:101B4000AB89EFCD2DE9F84FDFF8B8A100220AF1FB
:101B5000040B144601274FF00F090BF1040E00BFD0
:101B60000B6807FA04F52B40AB4274D1DFF898C13B
:101B70004E68A6EB0C0866452BD00DDC032E34D046
:101B800005DC36B3012E19D0022E2FD11BE0112E09
:101B900016D0122E2AD119E0B8F5881F19D006DC0C
:101BA000B8F5803F15D0B8F5801F1FD111E0B8F50A
:101BB000001F0ED0B8F5041F18D10AE0CA6815E05E
:101BC000CA68121D12E0CA6808320FE0CA680C32F7
:101BD0000CE08A682AB1012A4FF0080203D045615F
:101BE00004E0042202E0056100E00022FF2B01D89E
:101BF000064601E000F104064FEA840501D9A5F18B
:101C00002005D6F800C009FA05F82CEA080C02FAFB
:101C100005F54CEA050CC6F800C04D68ED006AD524
:101C20003A4DAE6946F00106AE61AD6924F0030697
:101C300005F001050095364D06EB050CDCF8085063
:101C4000A6074FEA167809FA08F6B543314EB042B6
:101C500002D100261AE04EE02F4EB04201D10126FB
:101C600014E02E4EB04201D102260FE02C4EB042BD
:101C700001D103260AE02B4EB04201D1042605E033
:101C8000294EB04201D1052600E0062606FA08F6E4
:101C90002E43CCF808604D68DAF80060ED03554635
:101CA00001D51E4300E09E432E604D68AD0305D56F
:101CB000DBF800601E43CBF8006004E0DBF8005066
:101CC0009D43CBF800504D68DEF80060ED0275468C
:101CD00001D51E4300E09E432E604D68AD0205D540
:101CE000084D0C352E681E432E6004E0054E0C3660
:101CF00035689D433560641C102CFFF431AFBDE89E
:101D0000F88F000000040140000011100010024094
:101D10000000014000080140000C0140001001409B
:101D20000014014000180140001C01400AB101618B
:101D300070470904FBE70000014800687047000095
:101D4000D800002010B5040008D02068C168C9433D
:101D5000C90705D1C068C043800701D4012010BD68
:101D6000607B20B900202073204600F018F8022084
:101D70006073216845F255500860206841686268C8
:101D800021F007011143416020688168A2686FF368
:101D90000B011143816001206073002010BD70476A
:101DA00002480168491C016070470000D80000200B
:101DB000074810B5016841F010010160032000F0F0
:101DC00087F8002000F006F800F016F8002010BD9B
:101DD0000020024010B5044600F0E6F94FF47A7195
:101DE000B0FBF1F000F086FD00222146501E00F00D
:101DF0004FF8002010BD00001D4808B5816941F072
:101E000001018161806900F001000090032000F071
:101E10005FF8002211466FF00B0000F039F8002245
:101E200011466FF00A0000F033F8002211466FF0FF
:101E3000090000F02DF800221146501F00F028F88C
:101E400000221146101F00F023F800221146901EB8
:101E500000F01EF800221146501E00F019F8054847
:101E6000416821F0E06141F08061416008BD0000FF
:101E7000001002400000014000F01F0201219140CB
:101E80004009800000F1E020C0F800117047000018
:101E9000F0B40E4B1B680C46C3F30223C3F10705D5
:101EA000042D00D90425191D072901D2002300E0C3
:101EB000DB1E012606FA05F1491E214099409E408D
:101EC000761E16403143F0BC01F0D0BC0CED00E0B2
:101ED000064900F0070208684FF6FF03184040EA81
:101EE0000220034A10430860704700000CED00E038
:101EF0000000FA052DE9F84305460078454CC00777
:101F000074D0E06940F08050E061E069424E00F03A
:101F100080500090306840F480703060FFF70CFF14
:101F2000074604E0FFF708FFC01B642833D8306879
:101F3000C005F7D5206A10F4407051D0A98801F48B
:101F4000407181424CD0206A0126310491FAA1F2FD
:101F5000B2FA82F29300314A20F440701344C3F87D
:101F6000006491FAA1F1B1FA81F102EB8101002341
:101F7000C1F800342062C00732D0FFF7DDFE07460B
:101F800041F288394FF0020808E000BFFFF7D4FEA5
:101F9000C11B494502D90320BDE8F88398FAA8F18E
:101FA000B1FA81F141F040014046B6EB511F01D139
:101FB00021680BE090FAA0F1B1FA81F141F0400103
:101FC000B0EB511F01D1216A00E0616A98FAA8F0D4
:101FD000B0FA80F000F01F0206FA02F00142D5D0FC
:101FE000206A696820F440700843206228788007DE
:101FF00005D56068A96820F44040084360602878EF
:10200000C00605D56068696920F4800008436060F7
:102010000020C1E700100240007000400000424272
:102020002DE9F047DFF8708105460E46D8F800002C
:1020300000F00700B0420CD2D8F8001021F00701E0
:102040003143C8F80010D8F8000000F00700B04293
:1020500077D12878514C800705D56068A96820F0B1
:10206000F000084360602878C00759D069680120F3
:1020700001290DD0022929D05FF0020393FAA3F2BF
:10208000B2FA82F242F02002520904D0226803E040
:102090004FF40033F2E7626A93FAA3F3B3FA83F3DF
:1020A00003F01F03984002424BD0606820F0030009
:1020B00008436060FFF740FE6968074641F28830D8
:1020C00001290DD00229814617D025E04FF0007379
:1020D000D4E700BFFFF730FEC11B494501D918E026
:1020E00081466068C0F381000128F3D118E000BF89
:1020F000FFF722FEC11B49450BD86068C0F3810081
:102100000228F5D10CE000BFFFF716FEC11B4945C0
:1021100002D90320BDE8F087606810F00C0FF3D1FE
:10212000D8F80010404601F00701B1420BD9016810
:1021300021F0070131430160006800F00700B04260
:1021400001D00120E6E72878400705D56068E968F6
:1021500020F4E060084360602878000706D56068D6
:10216000296920F4605040EAC100606000F052F834
:102170006168F02292FAA2F201F0F001B2FA82F262
:10218000D140074A515CC840064908600020FFF76B
:1021900021FE0020BEE700000020024000100240A7
:1021A000D444000800000020014800687047000087
:1021B0000000002008480949006849684FF4E062BF
:1021C00092FAA2F201F4E061B2FA82F2D140044A3A
:1021D000515CC84070470000000000200010024021
:1021E000E444000808480949006849684FF460520F
:1021F00092FAA2F201F46051B2FA82F2D140044A9A
:10220000515CC840704700000000002000100240F0
:10221000E444000810B519A385B00FCB8DE80F007A
:102220001AA01B4B006804905A681A4802F00C016F
:1022300004291DD008291BD14FF4701494FAA4F47A
:1022400002F47011B4FA84F4E140D2031DF80110D5
:1022500010D55A684FF4003393FAA3F302F4003216
:10226000B3FA83F3DA4004AB9A5CB0FBF2F0484374
:1022700005B010BD08484843FAE700000203040512
:10228000060708090A0B0C0D0E0F101001020000C2
:102290000010024000127A0000093D002DE9F84FBD
:1022A00004460078F74DC0074FF0010625D0686856
:1022B0007704C0F38100012807D06868C0F381006B
:1022C00002281BD16868C00318D597FAA7F0B0FAA6
:1022D00080F040F02000400901D0286800E0686AE2
:1022E00097FAA7F1B1FA81F101F01F0106FA01F1A5
:1022F00008425ED0606800287CD05AE06068B0F583
:10230000803F0BD010B1B0F5A02F11D0286820F479
:1023100080302860286820F4802002E0286840F49B
:1023200080302860606828B3FFF706FD80460BE028
:10233000286840F480202860F0E700BFFFF7FCFC2D
:10234000A0EB0800642871D897FAA7F0B0FA80F0E3
:1023500040F02000400901D0286800E0686A97FA40
:10236000A7F1B1FA81F101F01F0106FA01F108426B
:10237000E4D01EE0FFF7E0FC804605E0FFF7DCFC60
:10238000A0EB08006428DED897FAA7F0B0FA80F036
:1023900040F02000400901D0286800E0686A97FA00
:1023A000A7F1B1FA81F101F01F0106FA01F108422B
:1023B000E4D12078DFF8D08280074FF000094FF099
:1023C00002075BD568684FF0F80B10F00C0F07D0D0
:1023D0006868C0F3810002281CD16868C00319D462
:1023E00097FAA7F0B0FA80F040F02000400902D040
:1023F000286801E08BE0686A97FAA7F1B1FA81F1E9
:1024000001F01F0106FA01F108422CD020690128D1
:102410007DD128E0206990B396FAA6F0B0FA80F05A
:1024200048F82060FFF788FC824607E011E100BF12
:10243000FFF782FCA0EB0A00022884D897FAA7F0E5
:10244000B0FA80F040F02000400901D0286800E098
:10245000686A97FAA7F1B1FA81F101F01F0106FA53
:1024600001F10842E4D028689BFAABF26169B2FA44
:1024700082F220F0F80091400843286025E0FFE751
:1024800096FAA6F1B1FA81F148F82190FFF754FCD1
:10249000824605E0FFF750FCA0EB0A000228CCD8EA
:1024A00097FAA7F0B0FA80F040F02000400901D080
:1024B000286800E0686A97FAA7F1B1FA81F101F0A3
:1024C0001F0106FA01F10842E4D1207800076ED519
:1024D000A069B8B396FAA6F0B0FA80F008EB8000D5
:1024E000C0F88064FFF728FC824605E0FFF724FC73
:1024F000A0EB0A000228A0D897FAA7F0B0FA80F063
:1025000040F06000B6EB501F02D128680CE062E199
:1025100097FAA7F0B0FA80F040F06000B7EB501FD8
:1025200001D1286A00E0686A97FAA7F1B1FA81F14F
:1025300001F01F0106FA01F21042D7D00120FFF787
:1025400045FA34E0FFE796FAA6F1B1FA81F108EB1B
:102550008101C1F88094FFF7EFFB824606E000BFDF
:10256000FFF7EAFBA0EB0A00022872D897FAA7F05F
:10257000B0FA80F040F06000B6EB501F01D128683F
:102580000BE097FAA7F0B0FA80F040F06000B7EBEC
:10259000501F01D1286A00E0686A97FAA7F1B1FAE2
:1025A00081F101F01F0106FA01F21042D8D1207822
:1025B000400765D5E86940F08050E861E869DFF8D8
:1025C000CCB000F080500090DBF8001041F4807136
:1025D000CBF80010FFF7B0FB824605E0FFF7ACFB3D
:1025E000A0EB0A00642834D8DBF80000C005F5D55C
:1025F000E06801280AD008B1052813D0286A20F025
:1026000001002862286A20F0040002E0286A40F0F5
:1026100001002862E06841F2883B90B3FFF78CFB31
:1026200082460BE0286A40F004002862EEE700BF13
:10263000FFF782FBA0EB0A0159450AD897FAA7F0E9
:10264000B0FA80F040F04000B6EB501F02D128688D
:102650000CE0A3E097FAA7F0B0FA80F040F0400059
:10266000B7EB501F01D1286A00E0686A97FAA7F11A
:10267000B1FA81F101F01F0206FA02F10842D7D047
:1026800031E005E0001002400000424200700040CE
:10269000FFF752FB824605E0FFF74EFBA0EB0A0175
:1026A00059457BD897FAA7F0B0FA80F040F0400087
:1026B000B6EB501F01D128680BE097FAA7F0B0FAEB
:1026C00080F040F04000B7EB501F01D1286A00E0D5
:1026D000686A97FAA7F1B1FA81F101F01F0206FAD0
:1026E00002F10842D8D1E06980B36968C1F3810181
:1026F000022970D04FF080714F000228484609D05F
:1027000091FAA1F1B1FA81F148F82100FFF714FB29
:10271000044669E08A4691FAA1F1B1FA81F1C14615
:1027200048F82100FFF708FB804605E0FFF704FBAF
:10273000A0EB0800022854D897FAA7F0B0FA80F06E
:1027400040F02000400902D0286801E061E0686A9A
:1027500097FAA7F1B1FA81F101F01F0106FA01F130
:102760000842E3D1206AB0F5803F05D16868A168CE
:1027700020F4003008436860D4E908010843696820
:1027800021F47411084368609AFAAAF0B0FA80F054
:1027900049F82060FFF7D0FA044606E021E000BFC8
:1027A000FFF7CAFA001B02281BD897FAA7F0B0FA65
:1027B00080F040F02000400901D0286800E0686AFD
:1027C00097FAA7F1B1FA81F101F01F0106FA01F1C0
:1027D0000842E5D01DE01EE0FFF7AEFA001B02281C
:1027E00002D90320BDE8F88F97FAA7F0B0FA80F07D
:1027F00040F02000400901D0286800E0686A97FA9C
:10280000A7F1B1FA81F101F01F0106FA01F10842C6
:10281000E2D10020E6E70120E4E74FF0E0210428C0
:10282000086903D020F004000861704740F00400FC
:10283000FAE7000030B52E480021827D52B1427D7A
:10284000FF2A07D2521CD2B24275322A02D98175B0
:102850004175C175B0F842204FF6FF739A4202D21B
:10286000521CA0F84220B0F8544001229C420BD2E6
:10287000641CA3B242F21074A0F85430A34203D9EE
:10288000A0F8541082764276847814F0600F13D149
:10289000C36E5D1C01D05B1CC366036F5D1C01D061
:1028A0005B1C0367436F5D1C01D05B1C4367836F38
:1028B0005D1C01D05B1C8367C4F34113032B09D15A
:1028C000836F5C1C01D05B1C8367C36F5C1C01D0F1
:1028D0005B1CC367438C4FF47A74A34206D25B1C23
:1028E0009BB24384A34201D30271418430BD0000F6
:1028F0000800002010B5401EB0F1807F01D30120F8
:1029000010BD4FF0E02460610F21601700F0AEFFB2
:102910000020A06107202061002010BD10B5FFF746
:1029200089FF10BD7047704730B590F83820012AF4
:1029300019D0012200F8382F02234370D1E9003466
:102940002343D1E902452C4323430C6923434C69BB
:10295000896923430B4350F8381C4B6442700021B3
:102960000170084630BD022030BD30B590F83820E7
:10297000012A20D0012280F83820022380F8393043
:1029800003685C6824F070045C6003685C680D6830
:102990002C435C6003689C6824F080049C6003689E
:1029A0009C6849680C439C6080F83920002180F8BD
:1029B0003810084630BD022030BD10B5044600680E
:1029C000042201F04CF82068416C41F4004141645C
:1029D0002068016841F001010160002010BD10B5C0
:1029E000040003D094F8390010B107E0012010BDB5
:1029F000002084F83800204600F00CF8022084F80B
:102A00003900211D206800F0DDFF012084F8390025
:102A1000002010BD08B500680B49884212D10B4850
:102A2000C16941F02001C161C069002200F02000AD
:102A3000009011463720FFF72BFABDE808403720F9
:102A4000FFF71ABA08BD0000001400400010024051
:102A50000168CA6842F00102CA600068016841F07A
:102A60000101016000207047022180F839100168DF
:102A70000A6A41F211131A4207D10A6A9B101A42DC
:102A800003D10A6822F001020A60012180F839109E
:102A900000207047F0B5354903688B4265D1D9688D
:102AA000C943490761D4324900220C464E7B247B3E
:102AB000002E1E6A4FF65F7506EA05061E62036861
:102AC0001D6A09D045F020051D6203685A6244F072
:102AD00010030B734A7344E01D6201274F73E30632
:102AE0003FD524F010040C7303685B6A214D0E7807
:102AF0009BB225F81630250628D51D4DA3F2911C52
:102B0000AA6D2D7852006D1CEDB2BCF5C77F0CD8B4
:102B1000202E26D28A650D70202D22D324F080032A
:102B200043F040030B73CA651BE0A3F2E93C40F29B
:102B30001F3EF44503D2202E13D2521CEAE70F7435
:102B40004E74CB8724F080020A730AE040F2E73526
:102B5000A3F6A173AB4204D244F080030B730A7056
:102B60008A6500686FF004010161F0BD0004004057
:102B7000080000201C0200202DE9F041044690F8D6
:102B800038000D4601283DD0012684F83860022027
:102B900084F83900AAB3042A46D02068082A55D000
:102BA000D5E90027E968036A23F480530362D0F86B
:102BB0001CC0036A2CF4407C4CEA07274FF6FF7CCC
:102BC00027F470470CEA013139434FF4204723F4CE
:102BD000204307EA02321A43C16102622068C169D8
:102BE00021F44061C1612068C169AA6841EA0221FB
:102BF000C0F81C1084F83960002084F83800BDE863
:102C0000F08101E00220FAE7D5E90012EB682068C4
:102C100000F0F2FF2068816921F00C0181612068D9
:102C20008169AA6811430FE0D5E90012EB682068BA
:102C300001F018F82068816921F440618161206801
:102C40008169AA6841EA02218161D3E7D5E9002CB4
:102C50002F7B016A21F480710162C169036A21F04E
:102C6000030141EA0C0121F0F00C39074FF4206711
:102C70004CEA116123F4206307EA02221A43C1617E
:102C800002622068C16921F00C01C1612068C1693C
:102C9000AA681143ACE710B5040003D094F83900DA
:102CA00010B107E0012010BD002084F83800204654
:102CB00000F00CF8022084F83900211D206800F093
:102CC00081FE012084F83900002010BD00B50068A5
:102CD000124985B088421ED11148C16941F00201F4
:102CE000C161C069694600F0020004908020009034
:102CF0000020019002900B48FEF724FF0A4841682B
:102D000041F440614160002211461D20FFF7C0F8E8
:102D10001D20FFF7B1F805B000BD00000004004021
:102D200000100240001001400000014010B5026890
:102D3000044631B1042908D0082915D00C2908D13E
:102D400016E0D06840F0020002E0D06840F00400D5
:102D5000D0600122206800F077FE2068016841F011
:102D600001010160002010BDD06840F00800EFE7CD
:102D7000D06840F01000EBE770B5044600680169C8
:102D80004FF00005C943890715D4C168C9438907B5
:102D900011D4E91E01610120207620688069800736
:102DA000204602D0FFF776FE04E000F0B7F8204698
:102DB00000F04CF9257620680169C943490717D40A
:102DC000C168C943490713D46FF0040101610220AF
:102DD00020762068806910F4407F204602D0FFF7FB
:102DE00059FE04E000F09AF8204600F02FF925760D
:102DF00020680169C943090716D4C168C943090796
:102E000012D46FF008010161042020762068C069A7
:102E10008007204602D0FFF73DFE04E000F07EF878
:102E2000204600F013F9257620680169C943C906D8
:102E300017D4C168C943C90613D46FF010010161EA
:102E4000082020762068C06910F4407F204602D018
:102E5000FFF720FE04E000F061F8204600F0F6F8ED
:102E6000257620680169C943C90708D1C168C943EB
:102E7000C90704D1891E0161204600F033F920689A
:102E80000169C943090609D4C168C943090605D4C3
:102E90006FF0800101612046FFF744FD2068016961
:102EA000C943490609D4C168C943490605D46FF02E
:102EB00040010161204600F051F920680169C943D1
:102EC00089060BD4C168C943890607D46FF0200175
:102ED00001612046BDE87040FFF725BD70BD0000D0
:102EE0001FB500680A49884211D102244FF480407E
:102EF000CDE90004694607480394FEF723FE20024B
:102F0000CDE90004694604480394FEF71BFE1FBD8B
:102F1000002C0140000C014000080140704770B5D2
:102F2000044690F838000D4601280DD0012684F89B
:102F30003860022084F8390042B1042A18D0082AE7
:102F40002AD00C2A4DD139E0022070BD206800F053
:102F500091FD2068816941F00801816120688169E3
:102F600021F004018161206881692A69114311E01F
:102F7000206800F0AFFD2068816941F40061816143
:102F80002068816921F480618161206881692A69F2
:102F900041EA0221816124E0206800F0D1FD20682F
:102FA000C16941F00801C1612068C16921F00401D3
:102FB000C1612068C1692A69114311E0206800F0ED
:102FC000F3FD2068C16941F40061C1612068C169F5
:102FD00021F48061C1612068C1692A6941EA022146
:102FE000C16184F83960002084F8380070BD10B5E4
:102FF000040003D094F8390010B107E0012010BD9F
:10300000002084F83800204600F00CF8022084F8F4
:103010003900211D206800F0D5FC012084F839001A
:10302000002010BD08B500680649884208D106484E
:10303000816941F400618161806900F40060009061
:1030400008BD0000002C0140001002407047000045
:1030500010B504460068012200F0F6FC084920681B
:10306000884202D00749884203D1416C41F40041B3
:1030700041642068016841F001010160002010BD39
:10308000002C01400034014010B5044600680022C5
:1030900000F0DAFC114841F21112216893108142CC
:1030A00002D00F48814209D1086A104206D1086A4D
:1030B000184203D1486C20F4004048642068016A3B
:1030C000114206D1016A194203D1016821F00101C0
:1030D0000160012084F83900002010BD002C01405F
:1030E0000034014070B5044600681749884204D195
:1030F000052216491648FEF733F91648226882421F
:103100001DD1D068C043C00719D11348017B21F0FD
:1031100090010173136A4FF65F752B4013622268AA
:10312000136A1362012242730022027001F00F023F
:103130000E2A01D2491C01E001F0F001017321685F
:103140006FF00100086170BD00140040080200200B
:10315000DC02002000040040080000207047704797
:1031600090F839007047000038B5044600680168DF
:10317000C26811F0010F02F4807204D01AB1E16B41
:1031800041F00101E1630168C1F34002416901F0CE
:10319000010122B119B1E26B42F00402E26302685C
:1031A000C2F3800222B119B1E26B42F00202E26383
:1031B0000268C2F3C00222B119B1E16B41F008010B
:1031C000E1630168C068C1F3401100F0200019B14B
:1031D00010B1204600F08CFD20680168C068C1F382
:1031E000C01100F0800019B110B1204600F08CFE33
:1031F00021680868CA68C0F3801002F04002012507
:1032000070B16AB1CA68204622F04002CA6094F8E0
:103210003910322911D080F8395000BF00F03EF942
:10322000E06B002808D0206801684068009084F8AE
:1032300039502046FFF793FF38BD222180F839101E
:10324000ECE770B5040004D094F83900002510B103
:1032500006E0012070BD84F83850204600F020F8C8
:10326000022084F839002068C16821F40051C1604F
:10327000204600F091FD2068016921F49041016130
:103280002068416921F02A0141612068C16841F448
:103290000051C160E563012084F83900002070BD51
:1032A00070B506460068234986B0884240D122485E
:1032B000C16941F48021C161C069204C00F48020C3
:1032C00004904FF48060009002200190032003904E
:1032D00069462046FEF736FC0025E014CDE90005DE
:1032E000694620460295FEF72DFC1548416821F0FD
:1032F000300141F010014160134C12482060102051
:10330000C4E901058020C4E903056561A561204683
:10331000E561FEF707FB08B1FDF7CEFB3463002241
:10332000114627206662FEF7B3FD2720FEF7A4FDB5
:1033300006B070BD0048004000100240001001407F
:10334000000001401C0002401C01002090F83930B0
:10335000012B01D0122B2CD139B332B390F8383075
:10336000012B26D0012380F8383081628285C28506
:103370000021C16390F83920122A18D05FF0220290
:1033800080F8392080F838100168CA6842F48072E9
:10339000CA6001684A6942F001024A610068C16876
:1033A00041F02001C16000207047012070473222A7
:1033B000E6E7022070470000124830B40246817DE3
:1033C000127E012341B1C17D00F1940407296254AA
:1033D00006D2491CC1750EE0552A0CD183750AE04E
:1033E000002181754175C175817811F0600101D0AE
:1033F000602900D103750349012230BC183102480D
:10340000FFF7A4BF08000020DC00002070B50446D0
:1034100090F83900012801D0222836D181B37AB33F
:1034200094F83800012830D0012084F83800216257
:10343000A284E2840025E56394F83900222822D092
:103440005FF0120084F83900236B11489862236BF7
:103450001048D862236B1048186326681346321D43
:10346000206BFEF787FA21686FF040000860206843
:10347000416941F08001416184F83850002070BDFD
:10348000FFE70120FBE73220DCE70220F7E700003E
:10349000B93C0008E73C00089B3C0008084910B50F
:1034A0000120C874C10200220648FEF73FFC04490F
:1034B0000122BDE8104018310348FFF747BF000064
:1034C0000800002000080140DC0000207047FEE7F3
:1034D0001148AA2101703C21417010494A7882703C
:1034E000D243C270CA8E0271C2F3032242710A8FA4
:1034F0008271C2F30322C271C97A0172C943417257
:1035000000220421435C491C1A44C9B2D2B20829E2
:10351000F8D3827270470000C60200200800002025
:10352000FEB526482449002401608915C0E902142B
:103530004461052505614FF460214460C161FDF7D8
:1035400015FE08B1FDF7B8FA022601200096CDE974
:10355000010469461948FDF79DFC08B1FDF7ACFA76
:103560000820CDE9000669461448FDF793FC08B130
:10357000FDF7A2FA0A2000900320019069460F4847
:10358000FDF788FC08B1FDF797FA0E2000900420A3
:10359000019069460948FDF77DFC08B1FDF78CFAFA
:1035A0000F20CDE9000569460448FDF773FC0028AB
:1035B00001D0FDF781FAFEBD00240140DC020020AD
:1035C0000D4808B5416941F001014161406900229F
:1035D00000F00100009011460B20FEF759FC0B2073
:1035E000FEF74AFC002211460C20FEF751FCBDE814
:1035F00008400C20FEF740BC001002402DE9F047C7
:10360000314886B0816941F010018161816901F022
:1036100010010491816941F020018161816901F00B
:1036200020010491816941F004018161816901F007
:1036300004010491816941F0080181618069234F8F
:1036400000F008004FF44054049000222146384610
:10365000FEF76CFBDFF878804FF408460022314615
:103660004046FEF763FBDFF86C90002204214846D9
:10367000FEF75CFBDFF860A0002218215046FEF741
:1036800055FB0094012402256946384603950194B0
:10369000FEF758FACDE90064694640460395FEF707
:1036A00051FA0420CDE90004694603954846FEF727
:1036B00049FA1820CDE90004694603955046FEF703
:1036C00041FA06B0BDE8F08700100240001001404A
:1036D0000008014000140140000C0140094810B5E9
:1036E000074901600421416040F6FF718160FEF7E7
:1036F00029FB002803D0BDE81040FDF7DDB910BD5F
:10370000003000404403002010B5214890B01F490C
:103710000024C0E900144FF41671C0E902410461AD
:103720004461FFF764FC08B1FDF7C6F90E940EA9D9
:1037300017480F94FFF719F908B1FDF7BDF960209C
:10374000CDE900040294039404940594042269468C
:103750000F480694FFF7E3FB08B1FDF7ADF90794B6
:1037600005200894CDE909404FF40050CDE90B4005
:1037700007A907480D94FFF7D7F808B1FDF79CF9A2
:103780000348FFF7ADFB10B010BD0000002C014056
:103790005401002010B5164886B014490160472135
:1037A0000024C0E9011442F21071C0E90314FFF7CC
:1037B00072FA08B1FDF780F9049404A90C48059445
:1037C000FFF7D3F808B1FDF777F90120CDE9004004
:1037D00002940422694606480394FFF7CDF90028B5
:1037E00001D0FDF769F906B010BD000000040040EB
:1037F000900100201CB50D480B49002401604721B1
:10380000C0E901143221C160FFF7E9F808B1FDF702
:1038100053F90094694605480194FFF7A6F800287B
:1038200001D0FDF749F91CBD00140040CC01002077
:103830000C4810B50A4901604FF4E13141600021A4
:1038400081600C22C160C0E904128161C161FFF78F
:10385000F8FC002803D0BDE81040FDF72DB910BDDD
:1038600000480040DC000020FEE770470907090E11
:10387000002806DA00F00F0000F1E02080F8141DA7
:10388000704700F1E02080F80014704770477047DF
:103890001048AA2101702D2141700F494A78827089
:1038A000D243C2708A780271D2434271096E81712B
:1038B0000A0AC2710A0C0272090E41720022062124
:1038C000435C491C1A44C9B2D2B20A29F8D38272A5
:1038D00070470000BB0200200800002010B5FEF772
:1038E0005FFABDE81040FFF719B830B595B0012177
:1038F0000804CDE900100025029502240691CDE9C7
:1039000007404FF4E01009906846FEF7C7FC00B18D
:10391000FEE70AA90F2081E831004FF48060CDE96D
:103920000D0502210AA8FEF77BFB00B1FEE74FF46C
:10393000004011900F940FA8FEF7DCFA00B1FEE7EB
:10394000FEF732FC4FF47A71B0FBF1F0FEF7D2FFD4
:103950000420FEF762FF00221146501EFEF798FA7F
:1039600015B030BD0D48016841F0010101604168AA
:103970000B4A1140416001680A4A11400160016828
:1039800021F480210160416821F4FE0141604FF47F
:103990001F0181600449C0030860704700100240A5
:1039A0000000FFF8FFFFF6FE08ED00E00148FFF71A
:1039B000E3B90000900100200148FFF7DDB90000E5
:1039C000CC010020F0B502681A4B1B4D1B4E1C4F5A
:1039D0001C4C4FF0804C984209D0A04207D0604563
:1039E00005D0A84203D0B04201D0B84204D122F0A1
:1039F000700E4A6842EA0E02984209D0A04207D0EF
:103A0000604505D0A84203D0B04201D0B84203D1EE
:103A100022F44075CA682A4302608A68C2620A6852
:103A20008262984201D0A04201D10969016301215B
:103A30004161F0BD002C014000040040000800403E
:103A4000000C00400034014010B50123046A8B4093
:103A50009C430462036A8A401343036210BD10B59D
:103A60000423046A8B409C430462036A8A40134324
:103A7000036210BDF0B5026A22F001020262036A1D
:103A800042688469124E24F073050C682C4323F0BD
:103A900002058B682B430D4DA84201D0B04205D1E1
:103AA00023F00807CB683B4323F00403A84201D06E
:103AB000B04205D14D6922F4407215438A692A4308
:103AC00042608461496841630362F0BD002C01409B
:103AD00000340140F0B5026A22F010020262026A6C
:103AE000436884690D6824F4E64444EA05248D683B
:103AF00022F0200242EA05120F4D104EA84201D0DA
:103B0000B04206D1CF6822F0800242EA071222F0CA
:103B10004002A84201D0B04207D14D6923F440636E
:103B200043EA85038D6943EA8503436084614968FC
:103B300081630262F0BD0000002C014000340140AE
:103B4000F0B5026A22F480720262026A4368C469B4
:103B500022F4007224F073050C68124E2C438D6819
:103B600042EA05220E4DA84201D0B04206D1CF68EC
:103B700022F4006242EA072222F48062A84201D0C5
:103B8000B04207D14D6923F4405343EA05138D69D0
:103B900043EA05134360C4614968C1630262F0BD32
:103BA000002C01400034014030B5026A22F48052FA
:103BB0000262046A4268C3690D6823F4E64343EA7B
:103BC00005238D6824F4005444EA0534084DA842C6
:103BD00002D0084DA84204D14D6922F4804242EA45
:103BE00085124260C36149680164046230BD00000F
:103BF000002C01400034014070B5046A24F0010437
:103C000004628469056A124EB0420ED0114EB04271
:103C10000BD0B0F1804F08D00F4EB04205D00F4E00
:103C2000B04202D00E4EB04203D124F0030414433C
:103C300001E044F001041A0724F0F00444EA12629F
:103C400025F00A0301F00A0119438261016270BD87
:103C5000002C0140003401400004004000080040F6
:103C6000000C004030B5046A24F01004046284693A
:103C7000056A24F4407444EA022222F470444FF6A8
:103C8000FF7202EA03322243A02425F0A00304EAD3
:103C9000011119438261016230BD10B5406A0021F3
:103CA000C185C184012180F83910C16B41F0100138
:103CB000C163FFF754FA10BD10B50146406A0968A8
:103CC000096889060CD40021C18401684A6922F080
:103CD00080024A610068C16841F04001C16010BDC6
:103CE000FFF7DCFB10BD10B5406AFFF7EFFB10BD1E
:103CF00010B590F83910222903D0322901D00220C2
:103D000010BD8168B1F5805F11D00169002901689B
:103D10001FD0496801F07F03816A4A1C82620B70E0
:103D2000C18D491E0904090CC18518D030E0026913
:103D3000816A002A0268526805D0D2B20A80816A7C
:103D4000491C8162ECE7C2F308020A80816A891C7F
:103D5000F7E74A68816A4B1C83620A70E0E70168F2
:103D6000CA6822F02002CA6090F83910322911D0B6
:103D70000168CA6822F48072CA6001684A6922F048
:103D800001024A615FF0010180F83910FFF714FB6E
:103D9000002010BD1221F7E72DE9F041044600682C
:103DA0000169E26821F44051114301612169A06871
:103DB0000843616908432168CA6841F20C639A4369
:103DC0000243CA6020684169A26921F4407111432D
:103DD00041614C4920686425322688423CD1FEF777
:103DE00001FA00EBC00101EB001061688900B0FB33
:103DF000F1F7FEF7F7F900EBC00101EB0010616885
:103E0000B0468900B0FBF1F0B0FBF5F06FF018019F
:103E1000484307EB800106EB0110B0FBF5F000F022
:103E2000F006FEF7DFF900EBC00101EB001061685E
:103E30008900B0FBF1F0B0FBF5F006EB0016FEF7E1
:103E4000D1F900EBC00101EB001061688900B0FB03
:103E5000F1F7FEF7C7F93BE0FEF7ACF900EBC00164
:103E600001EB001061688900B0FBF1F7FEF7A2F9E1
:103E700000EBC00101EB00106168B0468900B0FBA7
:103E8000F1F0B0FBF5F06FF01801484307EB80014B
:103E900006EB0110B0FBF5F000F0F006FEF78AF932
:103EA00000EBC00101EB001061688900B0FBF1F08C
:103EB000B0FBF5F006EB0016FEF77CF900EBC00155
:103EC00001EB001061688900B0FBF1F7FEF772F9B1
:103ED00000EBC00101EB001061688900B0FBF1F05C
:103EE000B0FBF5F06FF01801484307EB800108EBD9
:103EF0000110B0FBF5F0216800F00F00304488603D
:103F0000BDE8F0810038014090F83910122903D043
:103F1000322901D0022070478168B1F5805F016AC3
:103F20000BD04A1C0262026809785160C18C491E9C
:103F30000904090CC1840ED017E009880268C1F396
:103F40000801516001690029016A02D0491C01621F
:103F5000ECE7891CFBE70168CA6822F08002CA60AE
:103F60000068C16841F04001C16000207047000056
:103F70000148FFF7F9B80000DC000020FEE7000070
:103F8000184810B50068184AC1B265231061A2F143
:103F90008000C829417023D811B308218170012104
:103FA000417300210170124CC175104BC2E91034ED
:103FB000114C104BC2E91234418741720F4C81728F
:103FC000C2E90E14A0F8541081760D4A417641865C
:103FD000126891634FF6FF71C1850A48016010BDF8
:103FE0004370DAE700F8030888000020DAE6C6F438
:103FF00084251E3FF168E388B5F8F43E000069406F
:10400000540100202C2C014010B586B00446FDF769
:1040100087FD0B490020029100900121CDE903109A
:1040200004A96846FDF7DEFC0648002321464278D5
:104030000120FDF735FDFDF729FD06B010BD00009C
:1040400000F803080800002002E008C8121F08C199
:10405000002AFAD170477047002001E001C1121F09
:10406000002AFBD1704700001CB5FDF7A1FEFFF749
:104070003CFCFFF7C3FAFFF7A3FAFFF751FAFFF78B
:10408000D7FBFFF741FBFFF785FBFFF727FBFFF7A8
:10409000B1FBFFF775FFDFF8F4A34FF400690022CE
:1040A00049465046FDF742FE0122F949F948FFF71B
:1040B0004DF9F948FEF7CCFC0421F748FEF736FE2F
:1040C0004FF4005B00225946F448FDF72FFEF448F8
:1040D000FEF7BEFCDFF8B88340F6B83708F17C087D
:1040E000A8F114050026A5F18004A07D28B1607D0B
:1040F000322802D9A6756675E675607EC8B1667607
:10410000E448FFF72DF8012809D0E248FFF728F826
:10411000C8B1E048FFF724F8042814D009E00022D1
:1041200049465046FDF702FE0122D949D948FFF71A
:104130000DF9A07EB0B1A676608DB0F5617F05D98E
:104140000020D8490CE0FFF773FBE8E7FCF746F9DD
:10415000D54AD64BFCF7BFF80022D54BFCF7B5F893
:10416000C5E90E01207D00287ED0267598F8011043
:104170004046C943CAB288F8012098F8001091421D
:1041800072D16278914270D181784B296ED008DC6F
:104190000F2945D01E290BD02D293FD03C2963D1B2
:1041A0003FE05A297BD069297AD078295CD1C3E0D5
:1041B00000220321435C491C1A44C9B2D2B2072928
:1041C000F8D3C17991424FD14179C27801F0F0031F
:1041D00002EB0312E286027901F00F0102EB0121EA
:1041E000218798F80600E072A07800F0F800A0702F
:1041F0006179102900D26671010670D510F0600F48
:104200006DD101206687E070024649465046FDF7B1
:104210008DFDFFF75DF90B22A6495DE0FCF76EFB13
:1042200050E094F802C01CF0600F58D10179C943E6
:10423000C9B20171C2788A4251D14279817998F824
:1042400007005318DBB2984249D102EB01209A498A
:1042500080B26086096888630CF0BF0040F02000DF
:10426000A070FCF777FD02E039E06BE019E09248BE
:1042700066860068866391494FF6FF70E0850860A6
:104280008D48006886638C48FEF7EEFB04218A485F
:10429000FEF7FAFEA07800F09F00A0701FE00BE090
:1042A0000CE0012249465046FDF740FDFCF700FABC
:1042B0008049592264390FE001223EE0A07800F0E5
:1042C000F700A070012249465046FDF72FFDFFF789
:1042D000DFFA78490B220B396E48FFF797F8207BFD
:1042E00041060BD5A16E4A1C01D0491CA166A4F859
:1042F000426020F040002073FCF736FB207C28B1A0
:1043000026742868411C01D0401C2860E06EB84229
:1043100003D9A07800F07F00A070B4F842004EF6F8
:104320006021884203D9A666A4F840602E60A07878
:1043300000061AD5012219E0002259465748FDF718
:10434000F5FCBFE7FF29CAD1C178C943C9B2C17022
:1043500098F802008842C2D16070C82801D965204F
:1043600060705748FFF750FEACE700224FF48051D1
:104370004A48FDF7DBFC207900B12671A07810F0E7
:10438000600102D060297DD113E00021C5E90A1146
:10439000C10601D5E670A8E60106FCD5E178002942
:1043A000F9D000F0DF0040F04000A070FCF74CFCBA
:1043B0009BE6A16FB9424CD2A07C0028EBD0A6743A
:1043C000A08B0190E18B00914843FBF7F6FFD5E904
:1043D0001223FBF780FFC5E90C01E18E01988842AA
:1043E00031D2208F009981421AD2B1EB900F02D2C4
:1043F0000022344B04E0B1EB500F06D2324B0022C6
:10440000D5E90A01FBF7C0FE20E0A0F5FA70814271
:104410004FF0000202DA4FF08043F1E72B4BEFE759
:1044200000F5FA72914202D90022274B06E000F50E
:104430009670814207D900224FF08043D5E90A01E6
:10444000FBF743FF02E00022204BF7E7C5E90A0132
:104450004BE647F2305291420AD2D5E90A010022D6
:104460001B4BFBF7E1FF96D200201949EEE709E06C
:1044700040F00100A0706079062803D20620607128
:10448000FCF79AFBFCF73AFA2FE60000000801401F
:1044900020000020DC0000209001002000100140DE
:1044A000CC010020000069401D5A643BDF4FD53F1E
:1044B00000005940C6020020540100202C2C01406D
:1044C00000F8030800002440000014400000F03F02
:1044D0000000494000000000000000000102030449
:1044E0000607080900000000010203040C4500084B
:1044F00000000020DC00000048400008E8450008FB
:10450000DC0000209C0600005840000800A24A047D
:10451000000000000000000000000000000000009B
:10452000000000000000000000000000000000008B
:10453000000000000000000000000000000000007B
:10454000000000000000000000000000000000006B
:10455000000000000000000000000000000000005B
:10456000000000000000000000000000000000004B
:10457000000000000000000000000000000000003B
:10458000000000000000000000000000000000002B
:10459000000000000000000000000000000000001B
:1045A000000000000000000000000000000000000B
:1045B00000000000000000000000000000000000FB
:1045C00000000000000000000000000000000000EB
:1045D00000000000000000000000000000000000DB
:0845E0000000000000000000D3
:0400000508000131BD
:00000001FF
